:100000000C942A000C9447000C9447000C94470071
:100010000C9447000C9447000C9447000C94470044
:100020000C9447000C9447000C9447000C94470034
:100030000C9447000C9447000C9447000C94470024
:100040000C9447000C9447000C9447000C94470014
:100050000C94470011241FBECFE5D8E0DEBFCDBF12
:1000600010E0A0E6B0E0E0EFF9E402C005900D92E8
:10007000AA3CB107D9F710E0AAECB0E001C01D928C
:10008000A33DB107E1F70E9407100C94F6240C94ED
:100090000000EF92FF920F931F937B018C0120E0F1
:1000A00030E040E05FE40E94F50388238CF0C80153
:1000B000B70120E030E040E05FE40E94C1010E940F
:1000C00055049B01AC01205030404040504806C0D0
:1000D000C801B7010E9455049B01AC01B901CA01D6
:1000E0001F910F91FF90EF900895A0E0B0E0EBE733
:1000F000F0E00C94BF24DC012B01FA019C919230BA
:1001000008F439C1EB018881823008F433C194309E
:1001100069F4843009F02FC111969C91119789815F
:10012000981709F428C1A9EBB0E025C1843009F47F
:1001300021C18230A9F4923009F01DC19A01AD01AC
:1001400088E0EA010990AE01E90109929E0181501F
:10015000C1F7E201898111969C918923818308C1AD
:10016000923009F407C112962D903C901397EB0141
:100170008A819B811496AD90BD90CD90DC901797AD
:10018000EC80FD800E811F819101281B390BB90184
:1001900037FF04C066277727621B730B6032710537
:1001A0000CF061C0121613066CF537014801062EDB
:1001B00004C096948794779467940A94D2F721E0C8
:1001C00030E040E050E004C0220F331F441F551FB1
:1001D0006A95D2F721503040404050402E213F21B7
:1001E00040235123211531054105510521F021E01E
:1001F00030E040E050E079018A01E628F72808293C
:1002000019293CC0232BD1F1260E371E350146019A
:10021000062E04C096948794779467940A94D2F734
:1002200021E030E040E050E004C0220F331F441FC3
:10023000551F6A95D2F721503040404050402A2146
:100240003B214C215D21211531054105510521F04E
:1002500021E030E040E050E059016A01A628B728CB
:10026000C828D9280BC0821593052CF01C01AA249C
:10027000BB24650103C0EE24FF24870111969C91E5
:10028000D20111968C91981709F445C0992339F041
:10029000A80197012A193B094C095D0906C0A6016E
:1002A00095012E193F09400B510B57FD08C01182D3
:1002B0003382228224833583468357831DC081E0A5
:1002C00081833382228288279927DC01821B930B4A
:1002D000A40BB50B84839583A683B7830DC0220F2F
:1002E000331F441F551F24833583468357838281E0
:1002F000938101979383828324813581468157813D
:10030000DA01C9010197A109B1098F5F9F4FAF4F72
:10031000BF4328F30BC0918333822282EA0CFB1C7B
:100320000C1D1D1DE482F5820683178383E0808304
:10033000248135814681578157FF1AC0C901AA27F8
:1003400097FDA095BA2F81709070A070B0705695EF
:10035000479537952795822B932BA42BB52B848318
:100360009583A683B7838281938101969383828349
:10037000DF0101C0D201CD01CDB7DEB7E2E10C94BF
:10038000DB24A0E2B0E0E7ECF1E00C94CB2469833D
:100390007A838B839C832D833E834F835887E9E048
:1003A000EE2EF12CEC0EFD1ECE010196B7010E943F
:1003B0007E058E010F5E1F4FCE010596B8010E948B
:1003C0007E058A8991E089278A8BC701B801AE0131
:1003D000475E5F4F0E9475000E94A904A096E6E068
:1003E0000C94E724A0E2B0E0E8EFF1E00C94CB2419
:1003F00069837A838B839C832D833E834F835887C5
:10040000F9E0EF2EF12CEC0EFD1ECE010196B701A6
:100410000E947E058E010F5E1F4FCE010596B8012A
:100420000E947E05C701B801AE01475E5F4F0E9482
:1004300075000E94A904A096E6E00C94E724A0E2CF
:10044000B0E0E5E2F2E00C94BF2469837A838B8309
:100450009C832D833E834F835887CE010196BE0136
:10046000675F7F4F0E947E05CE010596BE016F5EDD
:100470007F4F0E947E059985923088F0898982306D
:10048000C8F0943019F4823051F404C0843029F457
:10049000923081F489EB90E0C6C0923049F420E0BC
:1004A0009A858A89981321E02A87CE010996BBC0D4
:1004B000823049F420E09A858A89981321E02A8BBA
:1004C000CE014196B0C02D843E844F8458886D88FB
:1004D0007E888F88988CEE24FF248701AA24BB2471
:1004E000650140E050E060E070E0E0E0F0E0C10174
:1004F00081709070892BE9F0E60CF71C081D191D1E
:100500009A01AB012A0D3B1D4C1D5D1D80E090E062
:10051000A0E0B0E0E614F7040805190520F481E036
:1005200090E0A0E0B0E0BA01A901480F591F6A1F8E
:100530007B1FAA0CBB1CCC1CDD1C97FE08C081E0F5
:1005400090E0A0E0B0E0A82AB92ACA2ADB2A3196B6
:10055000E032F10549F0660C771C881C991C569412
:10056000479437942794C3CFFA85EA892B893C892D
:100570008B859C85280F391F2E5F3F4F17C0CA01FE
:1005800081709070892B61F016950795F794E79428
:1005900080E090E0A0E0B0E8E82AF92A0A2B1B2BC3
:1005A00076956795579547952F5F3F4F77FDE7CF36
:1005B0000CC0440F551F661F771F17FD4160EE0CDE
:1005C000FF1C001F111F21503040403090E05907A0
:1005D00090E0690790E4790760F32B8F3C8FDB0193
:1005E000CA018F779070A070B07080349105A1051A
:1005F000B10561F447FD0AC0E114F10401051105DC
:1006000029F0405C5F4F6F4F7F4F40781A8EFE1786
:1006100011F081E08A8F4D8F5E8F6F8F78A383E01A
:10062000898FCE0149960E94A904A096E2E10C941C
:10063000DB24A8E1B0E0EFE1F3E00C94C724698388
:100640007A838B839C832D833E834F835887B9E0C5
:10065000EB2EF12CEC0EFD1ECE010196B7010E948F
:100660007E058E010F5E1F4FCE010596B8010E94D8
:100670007E052985223008F47EC03989323010F495
:10068000B8017CC08A859A8989278A87243011F02D
:10069000223031F4231709F06EC069EB70E06EC0B0
:1006A000343039F41D861E861F86188A1C861B86E8
:1006B00004C0323021F484E08987B7015FC02B8504
:1006C0003C858B899C89281B390B3C872B87ED84C3
:1006D000FE840F851889AD88BE88CF88D88CEA142F
:1006E000FB040C051D0540F4EE0CFF1C001F111F40
:1006F000215030403C872B8720E030E040E050E044
:1007000080E090E0A0E0B0E460E070E0EA14FB0478
:100710000C051D0540F0282B392B4A2B5B2BEA18C2
:10072000FB080C091D09B695A79597958795EE0CC2
:10073000FF1C001F111F6F5F7F4F6F31710531F775
:10074000DA01C9018F779070A070B0708034910584
:10075000A105B10561F427FD0AC0E114F10401050A
:10076000110529F0205C3F4F4F4F5F4F20782D87B8
:100770003E874F87588BBE01675F7F4FCB010E943A
:10078000A9046896EAE00C94E324A8E1B0E0EBEC5D
:10079000F3E00C94CB2469837A838B839C832D8331
:1007A0003E834F83588789E0E82EF12CEC0EFD1E26
:1007B000CE010196B7010E947E058E010F5E1F4F8C
:1007C000CE010596B8010E947E058985823040F0F1
:1007D0008989823028F0C701B8010E94F60501C05E
:1007E0008FEF6896E6E00C94E724A8E1B0E0EBEF29
:1007F000F3E00C94CB2469837A838B839C832D83D1
:100800003E834F83588789E0E82EF12CEC0EFD1EC5
:10081000CE010196B7010E947E058E010F5E1F4F2B
:10082000CE010596B8010E947E058985823040F090
:100830008989823028F0C701B8010E94F60501C0FD
:100840008FEF6896E6E00C94E724A8E1B0E0EBE2D5
:10085000F4E00C94CB2469837A838B839C832D836F
:100860003E834F83588789E0E82EF12CEC0EFD1E65
:10087000CE010196B7010E947E058E010F5E1F4FCB
:10088000CE010596B8010E947E058985823040F030
:100890008989823028F0C701B8010E94F60501C09D
:1008A00081E06896E6E00C94E724ACE0B0E0EBE58C
:1008B000F4E00C94CF2469837A838B839C83CE01EC
:1008C0000196BE016B5F7F4F0E947E058D81823055
:1008D00061F1823050F1843021F48E81882351F10E
:1008E0002EC02F81388537FD20C06E812F31310514
:1008F0001CF06623F9F023C08EE190E0821B930B7D
:1009000029853A854B855C8504C056954795379572
:1009100027958A95D2F76623B1F05095409530958A
:1009200021953F4F4F4F5F4F0EC020E030E040E039
:1009300050E009C02FEF3FEF4FEF5FE704C020E02A
:1009400030E040E050E8B901CA012C96E2E00C9496
:10095000EB24DF92EF92FF920F931F93FC01E48050
:10096000F58006811781D1808081823048F480E053
:1009700090E0A0E1B0E0E82AF92A0A2B1B2BA5C0E1
:10098000843009F49FC0823021F4EE24FF248701D3
:1009900005C0E114F1040105110519F4E0E0F0E0EF
:1009A00096C0628173819FEF623879070CF05BC05B
:1009B00022E83FEF261B370B2A3131052CF020E0CF
:1009C00030E040E050E02AC0B801A701022E04C088
:1009D00076956795579547950A94D2F781E090E010
:1009E000A0E0B0E004C0880F991FAA1FBB1F2A9582
:1009F000D2F70197A109B1098E219F21A023B1232C
:100A00000097A105B10521F081E090E0A0E0B0E001
:100A10009A01AB01282B392B4A2B5B2BDA01C90138
:100A20008F779070A070B07080349105A105B105EA
:100A300039F427FF09C0205C3F4F4F4F5F4F04C080
:100A4000215C3F4F4F4F5F4FE0E0F0E02030A0E0EF
:100A50003A07A0E04A07A0E45A0710F0E1E0F0E00E
:100A600079018A0127C06038710564F5FB01E158FE
:100A7000FF4FD801C7018F779070A070B07080349D
:100A80009105A105B10539F4E7FE0DC080E490E0C1
:100A9000A0E0B0E004C08FE390E0A0E0B0E0E80E9A
:100AA000F91E0A1F1B1F17FF05C016950795F7941F
:100AB000E794319687E016950795F794E7948A9521
:100AC000D1F705C0EE24FF248701EFEFF0E06E2F91
:100AD000679566276795902F9F77D794DD24D794E5
:100AE0008E2F8695492F462B582F5D29B701CA01B5
:100AF0001F910F91FF90EF90DF900895FC01DB01B3
:100B0000408151812281622F6F7770E0221F22275E
:100B1000221F9381892F880F822B282F30E0991F65
:100B20009927991F11969C93119721153105A9F5C5
:100B3000411551056105710511F482E037C082E865
:100B40009FEF13969C938E9312979A01AB0167E0E7
:100B5000220F331F441F551F6A95D1F783E08C93F2
:100B60000DC0220F331F441F551F12968D919C916B
:100B70001397019713969C938E931297203080E0E1
:100B8000380780E0480780E4580758F314962D93FF
:100B90003D934D935C93179708952F3F310579F45A
:100BA000411551056105710519F484E08C93089590
:100BB00064FF03C081E08C9312C01C9210C02F57B9
:100BC000304013963C932E93129783E08C9387E0EA
:100BD000440F551F661F771F8A95D1F770641496CE
:100BE0004D935D936D937C93179708951F93DC014C
:100BF000FB019C91923008F447C08081823008F458
:100C000043C0943051F411961C91843099F5818140
:100C1000682F70E0611B71093FC0843021F0923071
:100C200031F48230B9F18181882389F12DC0119688
:100C30001C9111978230F1F081811817D9F4129626
:100C40002D913C911397828193818217930794F0A1
:100C500028173907BCF014968D919D910D90BC9189
:100C6000A02D2481358146815781281739074A07ED
:100C70005B0718F4112341F00AC082179307A407F9
:100C8000B50740F4112319F061E070E005C06FEF83
:100C90007FEF02C060E070E0CB011F910895DF9309
:100CA000CF9300D000D0CDB7DEB789836A83898126
:100CB000882309F473C08981853008F06FC08A8168
:100CC000883008F06BC08981282F30E03C832B836B
:100CD0004B815C814230510549F18B819C8183308D
:100CE000910534F42B813C812130310561F056C0EF
:100CF0004B815C814330510561F18B819C81843053
:100D00009105D1F14BC0E9E3F0E08081282F30E07C
:100D10008A81882F90E0A90102C0559547958A9550
:100D2000E2F7CA0181708093CA0038C0E6E3F0E0C0
:100D30008081282F30E08A81882F90E0A90102C0AD
:100D4000559547958A95E2F7CA0181708093CA004C
:100D500025C0E3E3F0E08081282F30E08A81882FEE
:100D600090E0A90102C0559547958A95E2F7CA011E
:100D700081708093CA0012C0E0E3F0E08081282FE8
:100D800030E08A81882F90E0A90102C055954795EF
:100D90008A95E2F7CA0181708093CA008091CA00E7
:100DA0000F900F900F900F90CF91DF910895DF93E8
:100DB000CF93CDB7DEB727970FB6F894DEBF0FBE3F
:100DC000CDBF89836A834B838981882309F4FBC063
:100DD0008981853008F0F7C08A81883008F0F3C037
:100DE0008B81882321F08B81813009F0ECC08B81CD
:100DF000882309F070C08981282F30E03F832E833B
:100E00008E819F818230910551F12E813F81233067
:100E1000310534F48E819F818130910561F0D3C01A
:100E20002E813F812330310571F18E819F81843085
:100E30009105E9F1C8C0ABE3B0E0EBE3F0E08081FD
:100E4000482F8A81282F30E081E090E0022E02C0F6
:100E5000880F991F0A94E2F7842B8C93B4C0A8E3FF
:100E6000B0E0E8E3F0E08081482F8A81282F30E06D
:100E700081E090E0022E02C0880F991F0A94E2F7E9
:100E8000842B8C93A0C0A5E3B0E0E5E3F0E0808183
:100E9000482F8A81282F30E081E090E0022E02C0A6
:100EA000880F991F0A94E2F7842B8C938CC0A2E3DD
:100EB000B0E0E2E3F0E08081482F8A81282F30E023
:100EC00081E090E0022E02C0880F991F0A94E2F799
:100ED000842B8C9378C08B81813009F074C0898118
:100EE000282F30E03D832C838C819D8182309105B9
:100EF00061F12C813D812330310534F48C819D8159
:100F00008130910569F05FC02C813D81233031052E
:100F100089F18C819D818430910509F440C053C0D2
:100F2000ABE3B0E0EBE3F0E08081482F8A81282F2B
:100F300030E081E090E0022E02C0880F991F0A94F1
:100F4000E2F7809584238C933EC0A8E3B0E0E8E309
:100F5000F0E08081482F8A81282F30E081E090E006
:100F6000022E02C0880F991F0A94E2F7809584230D
:100F70008C9329C0A5E3B0E0E5E3F0E08081482F41
:100F80008A81282F30E081E090E0022E02C0880F95
:100F9000991F0A94E2F7809584238C9314C0A2E3EE
:100FA000B0E0E2E3F0E08081482F8A81282F30E032
:100FB00081E090E0022E02C0880F991F0A94E2F7A8
:100FC000809584238C9327960FB6F894DEBF0FBECE
:100FD000CDBFCF91DF910895DF93CF93CDB7DEB72B
:100FE00027970FB6F894DEBF0FBECDBF89836A8303
:100FF0004B838981882309F4FBC08981853008F0FF
:10100000F7C08A81883008F0F3C08B81882321F0F3
:101010008B81813009F0ECC08B81882309F075C089
:101020008981282F30E03F832E838E819F818230FB
:10103000910561F12E813F812330310534F48E8199
:101040009F818130910569F0D3C02E813F8123308B
:10105000310589F18E819F818430910509F440C06A
:10106000C7C0AAE3B0E0EAE3F0E08081482F8A81BC
:10107000282F30E081E090E0022E02C0880F991FF7
:101080000A94E2F7809584238C93B2C0A7E3B0E082
:10109000E7E3F0E08081482F8A81282F30E081E06B
:1010A00090E0022E02C0880F991F0A94E2F7809503
:1010B00084238C939DC0A4E3B0E0E4E3F0E080815E
:1010C000482F8A81282F30E081E090E0022E02C074
:1010D000880F991F0A94E2F7809584238C9388C027
:1010E000A1E3B0E0E1E3F0E08081482F8A81282F7E
:1010F00030E081E090E0022E02C0880F991F0A9430
:10110000E2F7809584238C9373C08B81813009F042
:101110006FC08981282F30E03D832C838C819D8195
:101120008230910551F12C813D812330310534F419
:101130008C819D818130910561F05AC02C813D8167
:101140002330310571F18C819D8184309105E9F165
:101150004FC0AAE3B0E0EAE3F0E08081482F8A8143
:10116000282F30E081E090E0022E02C0880F991F06
:101170000A94E2F7842B8C933BC0A7E3B0E0E7E34B
:10118000F0E08081482F8A81282F30E081E090E0D4
:10119000022E02C0880F991F0A94E2F7842B8C93C9
:1011A00027C0A4E3B0E0E4E3F0E08081482F8A8127
:1011B000282F30E081E090E0022E02C0880F991FB6
:1011C0000A94E2F7842B8C9313C0A1E3B0E0E1E32F
:1011D000F0E08081482F8A81282F30E081E090E084
:1011E000022E02C0880F991F0A94E2F7842B8C9379
:1011F00027960FB6F894DEBF0FBECDBFCF91DF911B
:101200000895DF93CF9300D000D0CDB7DEB78983A8
:101210006A8389818823B1F18981853098F5898134
:10122000282F30E03C832B838B819C818230910579
:10123000D9F02B813C812330310534F48B819C81A2
:101240008130910561F01EC02B813C812330310536
:1012500081F08B819C818430910581F013C0EAE399
:10126000F0E08A8180830EC0E7E3F0E08A8180832A
:1012700009C0E4E3F0E08A81808304C0E1E3F0E0A8
:101280008A8180830F900F900F900F90CF91DF9104
:101290000895DF93CF9300D000D0CDB7DEB7898318
:1012A0006A8389818823B1F18981853098F58981A4
:1012B000282F30E03C832B838B819C8182309105E9
:1012C000D9F02B813C812330310534F48B819C8112
:1012D0008130910561F01EC02B813C8123303105A6
:1012E00081F08B819C818430910581F013C0EBE308
:1012F000F0E08A8180830EC0E8E3F0E08A81808399
:1013000009C0E5E3F0E08A81808304C0E2E3F0E015
:101310008A8180830F900F900F900F90CF91DF9173
:101320000895DF93CF9300D000D0CDB7DEB7898387
:101330006A838981282F30E03C832B838B819C81B9
:101340008230910551F12B813C812330310534F4F9
:101350008B819C818130910561F05AC02B813C8149
:101360002330310571F18B819C8184309105E9F145
:101370004FC0ABE3B0E0EBE3F0E08081482F8A811F
:10138000282F30E081E090E0022E02C0880F991FE4
:101390000A94E2F784278C933BC0A8E3B0E0E8E32B
:1013A000F0E08081482F8A81282F30E081E090E0B2
:1013B000022E02C0880F991F0A94E2F784278C93AB
:1013C00027C0A5E3B0E0E5E3F0E08081482F8A8103
:1013D000282F30E081E090E0022E02C0880F991F94
:1013E0000A94E2F784278C9313C0A2E3B0E0E2E30F
:1013F000F0E08081482F8A81282F30E081E090E062
:10140000022E02C0880F991F0A94E2F784278C935A
:101410000F900F900F900F90CF91DF910895DF9371
:10142000CF93CDB7DEB72F970FB6F894DEBF0FBEC0
:10143000CDBF8F8781E060E040E00E94D70681E069
:1014400061E041E00E94D70682E06F850E94490971
:1014500081E062E040E00E94D70688E599E3A4ECD1
:10146000BFE38B879C87AD87BE876B857C858D8529
:101470009E8520E030E04AEF54E40E941F02DC0128
:10148000CB018F839887A987BA876F8178858985F3
:101490009A8520E030E040E85FE30E94250488233D
:1014A0002CF481E090E09E838D833FC06F8178852E
:1014B00089859A8520E03FEF4FE757E40E94C503F6
:1014C00018164CF56B857C858D859E8520E030E077
:1014D00040E251E40E941F02DC01CB01BC01CD01BE
:1014E0000E944900DC01CB019E838D830FC088ECF4
:1014F00090E09C838B838B819C810197F1F79C8387
:101500008B838D819E8101979E838D838D819E81AA
:10151000009769F714C06F81788589859A850E9444
:101520004900DC01CB019E838D838D819E819A834E
:10153000898389819A810197F1F79A83898381E070
:1015400062E041E00E94D7062F960FB6F894DEBF06
:101550000FBECDBFCF91DF910895DF93CF93CDB76D
:10156000DEB72F970FB6F894DEBF0FBECDBF8F87C3
:1015700081E060E041E00E94D70681E061E041E067
:101580000E94D70682E06F850E94490981E062E0EF
:1015900040E00E94D70688E599E3A4ECBFE38B877F
:1015A0009C87AD87BE876B857C858D859E8520E079
:1015B00030E04AEF54E40E941F02DC01CB018F832C
:1015C0009887A987BA876F81788589859A8520E071
:1015D00030E040E85FE30E94250488232CF481E09A
:1015E00090E09E838D833FC06F81788589859A8541
:1015F00020E03FEF4FE757E40E94C50318164CF573
:101600006B857C858D859E8520E030E040E251E44D
:101610000E941F02DC01CB01BC01CD010E944900E8
:10162000DC01CB019E838D830FC088EC90E09C830E
:101630008B838B819C810197F1F79C838B838D81B8
:101640009E8101979E838D838D819E81009769F78E
:1016500014C06F81788589859A850E944900DC01D4
:10166000CB019E838D838D819E819A83898389811D
:101670009A810197F1F79A83898381E062E041E0E2
:101680000E94D7062F960FB6F894DEBF0FBECDBFCF
:10169000CF91DF910895DF93CF9300D00F92CDB714
:1016A000DEB79B838A8319820EC08981282F30E0A0
:1016B0008A819B81FC01E20FF31F80810E940F0A47
:1016C00089818F5F89838981282F30E08A819B817E
:1016D000FC01E20FF31F8081882339F70F900F90F0
:1016E0000F90CF91DF9108950F931F93DF93CF93C6
:1016F000CDB7DEB7CC54D0400FB6F894DEBF0FBEE6
:10170000CDBF81E060E041E00E94EC0781E061E054
:1017100041E00E94EC0781E062E041E00E94EC07BA
:1017200082E061E00E940109FE01E75BFF4F80E07B
:1017300090E0A0EFB1E480839183A283B3838E0114
:101740000B5B1F4FFE01E75BFF4F60817181828160
:10175000938120E030E04AEF54E40E941F02DC0154
:10176000CB01F80180839183A283B383FE01EB5BFD
:10177000FF4F608171818281938120E030E040E8F9
:101780005FE30E942504882344F4FE01ED5BFF4FD4
:1017900081E090E09183808364C0FE01EB5BFF4FAA
:1017A000608171818281938120E03FEF4FE757E4B0
:1017B0000E94C50318160CF043C0FE01E75BFF4F03
:1017C000608171818281938120E030E040E251E4C8
:1017D0000E941F02DC01CB018E010D5B1F4FBC017B
:1017E000CD010E944900DC01CB01F8019183808387
:1017F0001FC0FE01EF5BFF4F88EC90E09183808378
:10180000FE01EF5BFF4F808191810197F1F7FE01AF
:10181000EF5BFF4F91838083DE01AD5BBF4FFE0125
:10182000ED5BFF4F80819181019711969C938E9380
:10183000FE01ED5BFF4F808191810097D1F624C0BE
:101840008E010D5B1F4FFE01EB5BFF4F60817181CD
:10185000828193810E944900DC01CB01F8019183D0
:101860008083FE01ED5BFF4F80819181FE01FF9639
:1018700091838083FE01FF96808191810197F1F72A
:10188000FE01FF969183808388E30E94AD0A80E089
:1018900090E0ACE1B2E48BAF9CAFADAFBEAF6BAD4F
:1018A0007CAD8DAD9EAD2BEA3AEA4AE250E40E944F
:1018B0001F02DC01CB018FAB98AFA9AFBAAF6FA904
:1018C00078AD89AD9AAD20E030E040E85FE30E945A
:1018D000250488231CF481E08EAB91C06FA978ADFC
:1018E00089AD9AAD20E030E04FE753E40E94C50394
:1018F00018160CF07BC06BAD7CAD8DAD9EAD20E0BD
:1019000030E04AE754E40E941903DC01CB018AABC2
:101910009BABACABBDAB6AA97BA98CA99DA920E010
:1019200030E04AEF54E40E941F02DC01CB018EA795
:101930009FA7A8ABB9AB6EA57FA588A999A920E000
:1019400030E040E85FE30E94250488232CF481E026
:1019500090E09DA78CA73FC06EA57FA588A999A9F7
:1019600020E03FEF4FE757E40E94C50318164CF5FF
:101970006AA97BA98CA99DA920E030E040E251E44E
:101980000E941F02DC01CB01BC01CD010E94490075
:10199000DC01CB019DA78CA70FC088EC90E09BA732
:1019A0008AA78AA59BA50197F1F79BA78AA78CA573
:1019B0009DA501979DA78CA78CA59DA5009769F76C
:1019C00024C06EA57FA588A999A90E944900DC01C1
:1019D000CB019DA78CA78CA59DA599A788A788A5B5
:1019E00099A50197F1F799A788A70FC06FA978ADBE
:1019F00089AD9AAD0E944900DC01CB018EAB8EA966
:101A00008FA38FA18A95F1F78FA38FE00E94AD0A73
:101A100080E090E0ACE1B2E48BA39CA3ADA3BEA3B5
:101A20006BA17CA18DA19EA12BEA3AEA4AE250E487
:101A30000E941F02DC01CB018F8F98A3A9A3BAA338
:101A40006F8D78A189A19AA120E030E040E85FE3A2
:101A50000E94250488231CF481E08E8F91C06F8D35
:101A600078A189A19AA120E030E04FE753E40E94D9
:101A7000C50318160CF07BC06BA17CA18DA19EA1A3
:101A800020E030E04AE754E40E941903DC01CB0176
:101A90008A8F9B8FAC8FBD8F6A8D7B8D8C8D9D8D3A
:101AA00020E030E04AEF54E40E941F02DC01CB0149
:101AB0008E8B9F8BA88FB98F6E897F89888D998D2A
:101AC00020E030E040E85FE30E94250488232CF406
:101AD00081E090E09D8B8C8B3FC06E897F89888DE3
:101AE000998D20E03FEF4FE757E40E94C503181699
:101AF0004CF56A8D7B8D8C8D9D8D20E030E040E231
:101B000051E40E941F02DC01CB01BC01CD010E9407
:101B10004900DC01CB019D8B8C8B0FC088EC90E0E1
:101B20009B8B8A8B8A899B890197F1F79B8B8A8B88
:101B30008C899D8901979D8B8C8B8C899D890097C1
:101B400069F724C06E897F89888D998D0E9449002C
:101B5000DC01CB019D8B8C8B8C899D89998B888B2B
:101B6000888999890197F1F7998B888B0FC06F8DC0
:101B700078A189A19AA10E944900DC01CB018E8F36
:101B80008E8D8F878F858A95F1F78F8781E00E94F0
:101B9000AD0A8AE097EDA3ECBFE38B879C87AD8706
:101BA000BE876B857C858D859E8520E030E04AEF81
:101BB00054E40E941F02DC01CB018F839887A98720
:101BC000BA876F81788589859A8520E030E040E882
:101BD0005FE30E94250488232CF481E090E09E833B
:101BE0008D833FC06F81788589859A8520E03FEF9E
:101BF0004FE757E40E94C50318164CF56B857C85AA
:101C00008D859E8520E030E040E251E40E941F0275
:101C1000DC01CB01BC01CD010E944900DC01CB01FC
:101C20009E838D830FC088EC90E09C838B838B8197
:101C30009C810197F1F79C838B838D819E81019715
:101C40009E838D838D819E81009769F714C06F817B
:101C5000788589859A850E944900DC01CB019E83A5
:101C60008D838D819E819A83898389819A81019751
:101C7000F1F79A83898386E00E94AD0AC45BDF4F47
:101C80000FB6F894DEBF0FBECDBFCF91DF911F918D
:101C90000F910895DF93CF9300D000D0CDB7DEB77A
:101CA00089836A838A818031C0F48981282F30E05A
:101CB0003C832B838B819C81009731F02B813C816D
:101CC0002130310531F009C08A8180580E94AD0A67
:101CD00004C08A8180540E94AD0A0F900F900F902B
:101CE0000F90CF91DF910895DF93CF9300D00F92A3
:101CF000CDB7DEB789838981282F30E03B832A83E3
:101D00008A819B81009731F02A813B812130310506
:101D100061F039C0E3E5F0E0808188608083E3E52D
:101D2000F0E08081806480832EC0EFE4F0E0808169
:101D300080688083EFE4F0E080818F7B8083EFE434
:101D4000F0E080818F7D8083EFE4F0E080818F7E02
:101D50008083EFE4F0E080818E7F8083EFE4F0E029
:101D6000808182608083EEE4F0E0808188608083FF
:101D7000EEE4F0E0808180618083E6E4F0E084ECD2
:101D800099E0918380830F900F900F90CF91DF9116
:101D900008950F931F93DF93CF93CDB7DEB72797A7
:101DA0000FB6F894DEBF0FBECDBF89834A835B8335
:101DB0006C837D838981282F30E03F832E838E8141
:101DC0009F81009731F0EE81FF81E130F10511F143
:101DD00042C00CE510E06A817B818C819D8120E00E
:101DE00030E040E853E40E941F02DC01CB01BC015B
:101DF000CD0120E030E048EC52E40E941903DC0100
:101E0000CB01BC01CD010E944900DC01CB01F801EE
:101E1000808321C00AE410E06A817B818C819D81EE
:101E200020E030E44CE155E40E941F02DC01CB01CC
:101E3000BC01CD0120E030E048EC52E40E941903DF
:101E4000DC01CB01BC01CD010E944900DC01CB01CA
:101E5000F8019183808327960FB6F894DEBF0FBEFA
:101E6000CDBFCF91DF911F910F910895DF93CF9355
:101E700000D00F92CDB7DEB789838981282F30E05B
:101E80003B832A838A819B81009731F02A813B81A1
:101E90002130310549F00FC0A3E5B0E0E3E5F0E003
:101EA0008081887F8C9307C0AFE4B0E0EFE4F0E07E
:101EB0008081887F8C930F900F900F90CF91DF914E
:101EC0000895DF93CF9300D00F92CDB7DEB789830B
:101ED0008981282F30E03B832A838A819B81009768
:101EE00031F02A813B812130310581F01DC0A3E50D
:101EF000B0E0E3E5F0E08081887F8C93A3E5B0E07B
:101F0000E3E5F0E0808184608C930EC0AEE4B0E045
:101F1000EEE4F0E08081887F8C93AEE4B0E0EEE404
:101F2000F0E0808183608C930F900F900F90CF91A1
:101F3000DF910895DF93CF93CDB7DEB7E0E4F0E013
:101F4000808180688083E0E4F0E080818F7B808303
:101F5000E0E4F0E08081877F8083E0E4F0E080814E
:101F600082608083E0E4F0E0808184608083E0E44C
:101F7000F0E080818F7E8083E0E4F0E080818F7DDF
:101F80008083EAE2F0E080818B7F8083EAE2F0E008
:101F9000808188608083EAE2F0E0808180618083D4
:101FA000E9E2F0E083E38083E0E4F0E01082CF91A7
:101FB000DF910895DF93CF930F92CDB7DEB789837A
:101FC000EBE2F0E0808180728823D1F3ECE2F0E074
:101FD000898180830F90CF91DF910895DF93CF9314
:101FE0000F92CDB7DEB7EBE2F0E0808180788823F6
:101FF000D1F3ECE2F0E080818983EBE2F0E08081D4
:102000008F77808389810F90CF91DF910895DF933F
:10201000CF930F92CDB7DEB784E064E041E00E9439
:10202000EC0784E065E041E00E94EC0784E066E0B4
:1020300041E00E94EC0781E066E041E00E94EC078D
:1020400081E067E041E00E94EC0784E064E041E069
:102050000E94D70684E065E041E00E94D70684E054
:1020600062E040E00E94EC0784E062E040E00E9411
:10207000D70683E06FEF0E94010983E06FEF0E94B3
:1020800049090E949A0F0E94740B0E9452101982F3
:1020900005C00E946C1089818F5F8983898185309A
:1020A000C0F3F5CFDF93CF930F92CDB7DEB781E0CA
:1020B0000E94AD0A80E690E00E944B0B198205C099
:1020C0000E946C1089818F5F898389818530C0F37C
:1020D0000F90CF91DF9108950F931F93DF93CF93CC
:1020E000CDB7DEB7CA51D1400FB6F894DEBF0FBEF0
:1020F000CDBF0E94EE0F8093CE008091CE0088234A
:1021000011F40C94DD1E8091CE00282F30E0C75EC4
:10211000DE4F39832883C951D140C75EDE4F8881A5
:102120009981C951D1408433910509F407C5C75E2F
:10213000DE4FE881F981C951D140E533F1050CF05A
:1021400041C0C75EDE4F28813981C951D14021335A
:10215000310509F479C0C75EDE4F88819981C95184
:10216000D14082339105C4F4C75EDE4FE881F98126
:10217000C951D140E332F10511F40C94D81EC75E69
:10218000DE4F28813981C951D1402033310511F406
:102190000C94DD1D0C94DD1EC75EDE4F8881998195
:1021A000C951D1408233910509F4CCC1C75EDE4FDD
:1021B000E881F981C951D140E333F10509F440C305
:1021C0000C94DD1EC75EDE4F28813981C951D14094
:1021D0002733310511F40C94161AC75EDE4F88813F
:1021E0009981C951D14088339105B4F4C75EDE4F5F
:1021F000E881F981C951D140E533F10509F41CC6E4
:10220000C75EDE4F28813981C951D140263331055F
:1022100009F48FC70C94DD1EC75EDE4F888199815B
:10222000C951D1408833910511F40C94931BC75EBA
:10223000DE4FE881F981C951D140E933F10511F44C
:102240000C94E21C0C94DD1EFE01EB5EFE4F80E060
:1022500090E0A8ECB2E480839183A283B3838E01E3
:102260000F5E1E4FFE01EB5EFE4F60817181828129
:10227000938120E030E04AEF54E40E941F02DC0129
:10228000CB01F80180839183A283B383FE01EF5ECB
:10229000FE4F608171818281938120E030E040E8CF
:1022A0005FE30E942504882344F4FE01E15FFE4FB2
:1022B00081E090E09183808364C0FE01EF5EFE4F79
:1022C000608171818281938120E03FEF4FE757E485
:1022D0000E94C50318160CF043C0FE01EB5EFE4FD2
:1022E000608171818281938120E030E040E251E49D
:1022F0000E941F02DC01CB018E01015F1E4FBC0159
:10230000CD010E944900DC01CB01F801918380835B
:102310001FC0FE01E35FFE4F88EC90E09183808355
:10232000FE01E35FFE4F808191810197F1F7FE018D
:10233000E35FFE4F91838083DE01A15FBE4FFE010C
:10234000E15FFE4F80819181019711969C938E935E
:10235000FE01E15FFE4F808191810097D1F627C099
:102360008E01015F1E4FFE01EF5EFE4F60817181A5
:10237000828193810E944900DC01CB01F8019183A5
:102380008083DE01A55FBE4FFE01E15FFE4F8081CD
:1023900091818D939C93FE01E55FFE4F8081918139
:1023A0000197F1F7FE01E55FFE4F9183808387E699
:1023B00090E00E944B0B81E30E94E91EFE01E95F61
:1023C000FE4F80E090E0A8E4B3E480839183A28391
:1023D000B3838E010D5F1E4FFE01E95FFE4F6081EA
:1023E00071818281938120E030E04AEF54E40E94C1
:1023F0001F02DC01CB01F80180839183A283B383A8
:10240000FE01ED5FFE4F608171818281938120E04A
:1024100030E040E85FE30E942504882344F4FE0195
:10242000EF5FFE4F81E090E09183808364C0FE0106
:10243000ED5FFE4F608171818281938120E03FEFEB
:102440004FE757E40E94C50318160CF043C0FE0185
:10245000E95FFE4F608171818281938120E030E0ED
:1024600040E251E40E941F02DC01CB018E010F5FAC
:102470001E4FBC01CD010E944900DC01CB01F801D7
:10248000918380831FC0FE01E150FF4F88EC90E0F4
:1024900091838083FE01E150FF4F808191810197FC
:1024A000F1F7FE01E150FF4F91838083DE01AF5FC2
:1024B000BE4FFE01EF5FFE4F808191810197119623
:1024C0009C938E93FE01EF5FFE4F80819181009778
:1024D000D1F627C08E010F5F1E4FFE01ED5FFE4F4C
:1024E00060817181828193810E944900DC01CB016E
:1024F000F80191838083DE01A350BF4FFE01EF5F9F
:10250000FE4F808191818D939C93FE01E350FF4F9C
:10251000808191810197F1F7FE01E350FF4F918394
:1025200080839091C50080E0692F0E944A0E8091BF
:10253000C6000E940F0A8091C5008F5F8093C5007E
:102540000C94DD1EFE01E750FF4F80E090E0A8EC08
:10255000B2E480839183A283B3838E010B501F4F1B
:10256000FE01E750FF4F608171818281938120E0FD
:1025700030E04AEF54E40E941F02DC01CB01F80175
:1025800080839183A283B383FE01EB50FF4F608170
:1025900071818281938120E030E040E85FE30E9416
:1025A0002504882344F4FE01ED50FF4F81E090E0C4
:1025B0009183808364C0FE01EB50FF4F6081718185
:1025C0008281938120E03FEF4FE757E40E94C503EB
:1025D00018160CF043C0FE01E750FF4F6081718177
:1025E0008281938120E030E040E251E40E941F02AA
:1025F000DC01CB018E010D501F4FBC01CD010E94AB
:102600004900DC01CB01F801918380831FC0FE01EA
:10261000EF50FF4F88EC90E091838083FE01EF50F4
:10262000FF4F808191810197F1F7FE01EF50FF4F3D
:1026300091838083DE01AD50BF4FFE01ED50FF4F0F
:1026400080819181019711969C938E93FE01ED50AC
:10265000FF4F808191810097D1F627C08E010D50E8
:102660001F4FFE01EB50FF4F60817181828193818A
:102670000E944900DC01CB01F80191838083DE01D7
:10268000A151BF4FFE01ED50FF4F808191818D938D
:102690009C93FE01E151FF4F808191810197F1F7F9
:1026A000FE01E151FF4F9183808389E690E00E9413
:1026B0004B0B82E30E94E91EFE01E551FF4F80E0D3
:1026C00090E0A8E4B3E480839183A283B3838E0176
:1026D00009511F4FFE01E551FF4F608171818281D9
:1026E000938120E030E04AEF54E40E941F02DC01B5
:1026F000CB01F80180839183A283B383FE01E9516A
:10270000FF4F608171818281938120E030E040E859
:102710005FE30E942504882344F4FE01EB51FF4F40
:1027200081E090E09183808364C0FE01E951FF4F16
:10273000608171818281938120E03FEF4FE757E410
:102740000E94C50318160CF043C0FE01E551FF4F6F
:10275000608171818281938120E030E040E251E428
:102760000E941F02DC01CB018E010B511F4FBC01E7
:10277000CD010E944900DC01CB01F80191838083E7
:102780001FC0FE01ED51FF4F88EC90E091838083E4
:10279000FE01ED51FF4F808191810197F1F7FE011C
:1027A000ED51FF4F91838083DE01AB51BF4FFE019E
:1027B000EB51FF4F80819181019711969C938E93ED
:1027C000FE01EB51FF4F808191810097D1F627C028
:1027D0008E010B511F4FFE01E951FF4F6081718146
:1027E000828193810E944900DC01CB01F801918331
:1027F0008083DE01AF51BF4FFE01EB51FF4F80815F
:1028000091818D939C93FE01EF51FF4F80819181C7
:102810000197F1F7FE01EF51FF4F91838083909173
:10282000C50080E0692F0E944A0E8091C6000E9478
:102830000F0A8091C5008F5F8093C5000C94DD1E48
:10284000FE01E352FF4F80E090E0A8ECB2E4808309
:102850009183A283B3838E0107521F4FFE01E3527F
:10286000FF4F608171818281938120E030E04AEFE7
:1028700054E40E941F02DC01CB01F80180839183A4
:10288000A283B383FE01E752FF4F60817181828191
:10289000938120E030E040E85FE30E942504882334
:1028A00044F4FE01E952FF4F81E090E09183808380
:1028B00064C0FE01E752FF4F608171818281938184
:1028C00020E03FEF4FE757E40E94C50318160CF0D5
:1028D00043C0FE01E352FF4F608171818281938189
:1028E00020E030E040E251E40E941F02DC01CB0115
:1028F0008E0109521F4FBC01CD010E944900DC012D
:10290000CB01F801918380831FC0FE01EB52FF4F82
:1029100088EC90E091838083FE01EB52FF4F808131
:1029200091810197F1F7FE01EB52FF4F9183808374
:10293000DE01A952BF4FFE01E952FF4F8081918114
:10294000019711969C938E93FE01E952FF4F80816F
:1029500091810097D1F627C08E0109521F4FFE01C9
:10296000E752FF4F60817181828193810E9449000B
:10297000DC01CB01F80191838083DE01AD52BF4FB2
:10298000FE01E952FF4F808191818D939C93FE015E
:10299000ED52FF4F808191810197F1F7FE01ED52D9
:1029A000FF4F918380838BE690E00E944B0B83E383
:1029B0000E94E91EFE01E153FF4F80E090E0A8E491
:1029C000B3E480839183A283B3838E0105531F4FA9
:1029D000FE01E153FF4F608171818281938120E08C
:1029E00030E04AEF54E40E941F02DC01CB01F80101
:1029F00080839183A283B383FE01E553FF4F6081FF
:102A000071818281938120E030E040E85FE30E94A1
:102A10002504882344F4FE01E753FF4F81E090E052
:102A20009183808364C0FE01E553FF4F6081718113
:102A30008281938120E03FEF4FE757E40E94C50376
:102A400018160CF043C0FE01E153FF4F6081718105
:102A50008281938120E030E040E251E40E941F0235
:102A6000DC01CB018E0107531F4FBC01CD010E9439
:102A70004900DC01CB01F801918380831FC0FE0176
:102A8000E953FF4F88EC90E091838083FE01E95386
:102A9000FF4F808191810197F1F7FE01E953FF4FCC
:102AA00091838083DE01A753BF4FFE01E753FF4FA1
:102AB00080819181019711969C938E93FE01E7533B
:102AC000FF4F808191810097D1F627C08E01075377
:102AD0001F4FFE01E553FF4F608171818281938119
:102AE0000E944900DC01CB01F80191838083DE0163
:102AF000AB53BF4FFE01E753FF4F808191818D9310
:102B00009C93FE01EB53FF4F808191810197F1F778
:102B1000FE01EB53FF4F918380839091C50080E0CD
:102B2000692F0E944A0E8091C6000E940F0A809170
:102B3000C5008F5F8093C5000C94DD1EFE01EF532E
:102B4000FF4F80E090E0A8ECB2E480839183A28301
:102B5000B3838E0103541F4FFE01EF53FF4F60817B
:102B600071818281938120E030E04AEF54E40E9439
:102B70001F02DC01CB01F80180839183A283B38320
:102B8000FE01E354FF4F608171818281938120E0D7
:102B900030E040E85FE30E942504882344F4FE010E
:102BA000E554FF4F81E090E09183808364C0FE0193
:102BB000E354FF4F608171818281938120E03FEF78
:102BC0004FE757E40E94C50318160CF043C0FE01FE
:102BD000EF53FF4F608171818281938120E030E06B
:102BE00040E251E40E941F02DC01CB018E0105543A
:102BF0001F4FBC01CD010E944900DC01CB01F8014F
:102C0000918380831FC0FE01E754FF4F88EC90E062
:102C100091838083FE01E754FF4F8081918101976A
:102C2000F1F7FE01E754FF4F91838083DE01A55445
:102C3000BF4FFE01E554FF4F8081918101971196AE
:102C40009C938E93FE01E554FF4F80819181009704
:102C5000D1F627C08E0105541F4FFE01E354FF4FEC
:102C600060817181828193810E944900DC01CB01E6
:102C7000F80191838083DE01A954BF4FFE01E55422
:102C8000FF4F808191818D939C93FE01E954FF4F0A
:102C9000808191810197F1F7FE01E954FF4F918303
:102CA00080838DE690E00E944B0B84E30E94E91E36
:102CB000FE01ED54FF4F80E090E0A8E4B3E4808390
:102CC0009183A283B3838E0101551F4FFE01ED5402
:102CD000FF4F608171818281938120E030E04AEF73
:102CE00054E40E941F02DC01CB01F8018083918330
:102CF000A283B383FE01E155FF4F60817181828120
:102D0000938120E030E040E85FE30E9425048823BF
:102D100044F4FE01E355FF4F81E090E0918380830E
:102D200064C0FE01E155FF4F608171818281938112
:102D300020E03FEF4FE757E40E94C50318160CF060
:102D400043C0FE01ED54FF4F608171818281938108
:102D500020E030E040E251E40E941F02DC01CB01A0
:102D60008E0103551F4FBC01CD010E944900DC01BB
:102D7000CB01F801918380831FC0FE01E555FF4F11
:102D800088EC90E091838083FE01E555FF4F8081C0
:102D900091810197F1F7FE01E555FF4F9183808303
:102DA000DE01A355BF4FFE01E355FF4F80819181A6
:102DB000019711969C938E93FE01E355FF4F8081FE
:102DC00091810097D1F627C08E0103551F4FFE0158
:102DD000E155FF4F60817181828193810E9449009A
:102DE000DC01CB01F80191838083DE01A755BF4F41
:102DF000FE01E355FF4F808191818D939C93FE01ED
:102E0000E755FF4F808191810197F1F7FE01E7556A
:102E1000FF4F918380839091C50080E0692F0E94CD
:102E20004A0E8091C6000E940F0A8091C5008F5FF4
:102E30008093C5000C94DD1EFE01EB55FF4F80E032
:102E400090E0A8ECB2E480839183A283B3838E01E7
:102E50000F551F4FFE01EB55FF4F6081718182813D
:102E6000938120E030E04AEF54E40E941F02DC012D
:102E7000CB01F80180839183A283B383FE01EF55D8
:102E8000FF4F608171818281938120E030E040E8D2
:102E90005FE30E942504882344F4FE01E156FF4FBE
:102EA00081E090E09183808364C0FE01EF55FF4F85
:102EB000608171818281938120E03FEF4FE757E489
:102EC0000E94C50318160CF043C0FE01EB55FF4FDE
:102ED000608171818281938120E030E040E251E4A1
:102EE0000E941F02DC01CB018E0101561F4FBC0165
:102EF000CD010E944900DC01CB01F8019183808360
:102F00001FC0FE01E356FF4F88EC90E09183808361
:102F1000FE01E356FF4F808191810197F1F7FE0199
:102F2000E356FF4F91838083DE01A156BF4FFE0120
:102F3000E156FF4F80819181019711969C938E936A
:102F4000FE01E156FF4F808191810097D1F627C0A5
:102F50008E0101561F4FFE01EF55FF4F60817181B9
:102F6000828193810E944900DC01CB01F8019183A9
:102F70008083DE01A556BF4FFE01E156FF4F8081E1
:102F800091818D939C93FE01E556FF4F8081918145
:102F90000197F1F7FE01E556FF4F918380838FE69D
:102FA00090E00E944B0B85E30E94E91EFE01E9566A
:102FB000FF4F80E090E0A8E4B3E480839183A28394
:102FC000B3838E010D561F4FFE01E956FF4F6081FE
:102FD00071818281938120E030E04AEF54E40E94C5
:102FE0001F02DC01CB01F80180839183A283B383AC
:102FF000FE01ED56FF4F608171818281938120E057
:1030000030E040E85FE30E942504882344F4FE0199
:10301000EF56FF4F81E090E09183808364C0FE0112
:10302000ED56FF4F608171818281938120E03FEFF7
:103030004FE757E40E94C50318160CF043C0FE0189
:10304000E956FF4F608171818281938120E030E0F9
:1030500040E251E40E941F02DC01CB018E010F56B9
:103060001F4FBC01CD010E944900DC01CB01F801DA
:10307000918380831FC0FE01E157FF4F88EC90E0F1
:1030800091838083FE01E157FF4F808191810197F9
:10309000F1F7FE01E157FF4F91838083DE01AF56C8
:1030A000BF4FFE01EF56FF4F80819181019711962E
:1030B0009C938E93FE01EF56FF4F80819181009784
:1030C000D1F627C08E010F561F4FFE01ED56FF4F60
:1030D00060817181828193810E944900DC01CB0172
:1030E000F80191838083DE01A357BF4FFE01EF56A5
:1030F000FF4F808191818D939C93FE01E357FF4F99
:10310000808191810197F1F7FE01E357FF4F918391
:1031100080839091C50080E0692F0E944A0E8091C3
:10312000C6000E940F0A8091C5008F5F8093C50082
:1031300044C6FE01E757FF4F80E090E0A8ECB2E400
:1031400080839183A283B3838E010B571F4FFE01AF
:10315000E757FF4F608171818281938120E030E0E9
:103160004AEF54E40E941F02DC01CB01F801808386
:103170009183A283B383FE01EB57FF4F608171817E
:103180008281938120E030E040E85FE30E942504E3
:10319000882344F4FE01ED57FF4F81E090E09183D6
:1031A000808364C0FE01EB57FF4F60817181828193
:1031B000938120E03FEF4FE757E40E94C5031816C4
:1031C0000CF043C0FE01E757FF4F6081718182819F
:1031D000938120E030E040E251E40E941F02DC01D4
:1031E000CB018E010D571F4FBC01CD010E9449003C
:1031F000DC01CB01F801918380831FC0FE01EF57F2
:10320000FF4F88EC90E091838083FE01EF57FF4FE2
:10321000808191810197F1F7FE01EF57FF4F918374
:103220008083DE01AD57BF4FFE01ED57FF4F808118
:103230009181019711969C938E93FE01ED57FF4F5C
:10324000808191810097D1F627C08E010D571F4FC5
:10325000FE01EB57FF4F60817181828193810E9453
:103260004900DC01CB01F80191838083DE01A15884
:10327000BF4FFE01ED57FF4F808191818D939C934D
:10328000FE01E158FF4F808191810197F1F7FE0126
:10329000E158FF4F9183808381E790E00E944B0BC0
:1032A00086E30E94E91EFE01E558FF4F80E090E0B2
:1032B000A8E4B3E480839183A283B3838E01095889
:1032C0001F4FFE01E558FF4F60817181828193811C
:1032D00020E030E04AEF54E40E941F02DC01CB0101
:1032E000F80180839183A283B383FE01E958FF4FE5
:1032F000608171818281938120E030E040E85FE36A
:103300000E942504882344F4FE01EB58FF4F81E01E
:1033100090E09183808364C0FE01E958FF4F608193
:1033200071818281938120E03FEF4FE757E40E9453
:10333000C50318160CF043C0FE01E558FF4F60812D
:1033400071818281938120E030E040E251E40E946B
:103350001F02DC01CB018E010B581F4FBC01CD01B8
:103360000E944900DC01CB01F801918380831FC0DA
:10337000FE01ED58FF4F88EC90E091838083FE01C1
:10338000ED58FF4F808191810197F1F7FE01ED58D3
:10339000FF4F91838083DE01AB58BF4FFE01EB5896
:1033A000FF4F80819181019711969C938E93FE012E
:1033B000EB58FF4F808191810097D1F627C08E0195
:1033C0000B581F4FFE01E958FF4F608171818281C8
:1033D00093810E944900DC01CB01F8019183808335
:1033E000DE01AF58BF4FFE01EB58FF4F8081918146
:1033F0008D939C93FE01EF58FF4F8081918101973F
:10340000F1F7FE01EF58FF4F918380839091C50043
:1034100080E0692F0E944A0E8091C6000E940F0A28
:103420008091C5008F5F8093C500C7C4FE01E3593A
:10343000FF4F80E090E0A8ECB2E480839183A28308
:10344000B3838E0107591F4FFE01E359FF4F60817F
:1034500071818281938120E030E04AEF54E40E9440
:103460001F02DC01CB01F80180839183A283B38327
:10347000FE01E759FF4F608171818281938120E0D5
:1034800030E040E85FE30E942504882344F4FE0115
:10349000E959FF4F81E090E09183808364C0FE0191
:1034A000E759FF4F608171818281938120E03FEF76
:1034B0004FE757E40E94C50318160CF043C0FE0105
:1034C000E359FF4F608171818281938120E030E078
:1034D00040E251E40E941F02DC01CB018E01095938
:1034E0001F4FBC01CD010E944900DC01CB01F80156
:1034F000918380831FC0FE01EB59FF4F88EC90E061
:1035000091838083FE01EB59FF4F80819181019768
:10351000F1F7FE01EB59FF4F91838083DE01A9593A
:10352000BF4FFE01E959FF4F8081918101971196AC
:103530009C938E93FE01E959FF4F80819181009702
:10354000D1F627C08E0109591F4FFE01E759FF4FE1
:1035500060817181828193810E944900DC01CB01ED
:10356000F80191838083DE01AD59BF4FFE01E95917
:10357000FF4F808191818D939C93FE01ED59FF4F08
:10358000808191810197F1F7FE01ED59FF4F918301
:10359000808383E790E00E944B0B87E30E94E91E43
:1035A000FE01E15AFF4F80E090E0A8E4B3E480839D
:1035B0009183A283B3838E01055A1F4FFE01E15A06
:1035C000FF4F608171818281938120E030E04AEF7A
:1035D00054E40E941F02DC01CB01F8018083918337
:1035E000A283B383FE01E55AFF4F6081718182811E
:1035F000938120E030E040E85FE30E9425048823C7
:1036000044F4FE01E75AFF4F81E090E0918380830C
:1036100064C0FE01E55AFF4F608171818281938110
:1036200020E03FEF4FE757E40E94C50318160CF067
:1036300043C0FE01E15AFF4F608171818281938115
:1036400020E030E040E251E40E941F02DC01CB01A7
:103650008E01075A1F4FBC01CD010E944900DC01B9
:10366000CB01F801918380831FC0FE01E95AFF4F0F
:1036700088EC90E091838083FE01E95AFF4F8081BE
:1036800091810197F1F7FE01E95AFF4F9183808301
:10369000DE01A75ABF4FFE01E75AFF4F808191819B
:1036A000019711969C938E93FE01E75AFF4F8081FC
:1036B00091810097D1F627C08E01075A1F4FFE0156
:1036C000E55AFF4F60817181828193810E94490098
:1036D000DC01CB01F80191838083DE01AB5ABF4F3F
:1036E000FE01E75AFF4F808191818D939C93FE01EB
:1036F000EB5AFF4F808191810197F1F7FE01EB5A60
:10370000FF4F918380839091C50080E0692F0E94D4
:103710004A0E8091C6000E940F0A8091C5008F5FFB
:103720008093C5004AC3FE01EF5AFF4F80E090E04E
:10373000A8ECB2E480839183A283B3838E01035B00
:103740001F4FFE01EF5AFF4F60817181828193818B
:1037500020E030E04AEF54E40E941F02DC01CB017C
:10376000F80180839183A283B383FE01E35BFF4F63
:10377000608171818281938120E030E040E85FE3E5
:103780000E942504882344F4FE01E55BFF4F81E09D
:1037900090E09183808364C0FE01E35BFF4F608112
:1037A00071818281938120E03FEF4FE757E40E94CF
:1037B000C50318160CF043C0FE01EF5AFF4F60819D
:1037C00071818281938120E030E040E251E40E94E7
:1037D0001F02DC01CB018E01055B1F4FBC01CD0137
:1037E0000E944900DC01CB01F801918380831FC056
:1037F000FE01E75BFF4F88EC90E091838083FE0140
:10380000E75BFF4F808191810197F1F7FE01E75B54
:10381000FF4F91838083DE01A55BBF4FFE01E55B17
:10382000FF4F80819181019711969C938E93FE01A9
:10383000E55BFF4F808191810097D1F627C08E0113
:10384000055B1F4FFE01E35BFF4F60817181828149
:1038500093810E944900DC01CB01F80191838083B0
:10386000DE01A95BBF4FFE01E55BFF4F80819181C7
:103870008D939C93FE01E95BFF4F808191810197BD
:10388000F1F7FE01E95BFF4F9183808385E790E0CC
:103890000E944B0B88E30E94E91EFE01ED5BFF4F87
:1038A00080E090E0A8E4B3E480839183A283B383B3
:1038B0008E01015C1F4FFE01ED5BFF4F6081718146
:1038C0008281938120E030E04AEF54E40E941F029D
:1038D000DC01CB01F80180839183A283B383FE01D5
:1038E000FF96608171818281938120E030E040E821
:1038F0005FE30E94250488232CF481E090E09EAFD2
:103900008DAF46C0FE01FF966081718182819381F7
:1039100020E03FEF4FE757E40E94C503181664F517
:10392000FE01ED5BFF4F608171818281938120E018
:1039300030E040E251E40E941F02DC01CB01BC01F7
:10394000CD010E944900DC01CB019EAF8DAF0FC0BD
:1039500088EC90E09CAF8BAF8BAD9CAD0197F1F7FD
:103960009CAF8BAF8DAD9EAD01979EAF8DAF8DADF2
:103970009EAD009769F716C0FE01FF9660817181C8
:10398000828193810E944900DC01CB019EAF8DAF03
:103990008DAD9EAD9AAF89AF89AD9AAD0197F1F724
:1039A0009AAF89AF9091C50080E0692F0E944A0EBE
:1039B0008091C6000E940F0A8091C5008F5F80939E
:1039C000C500FBC180E090E0AAEFB3E48DAB9EABF5
:1039D000AFABB8AF6DA97EA98FA998AD20E030E05C
:1039E0004AEF54E40E941F02DC01CB0189AB9AAB81
:1039F000ABABBCAB69A97AA98BA99CA920E030E04C
:103A000040E85FE30E94250488232CF481E090E0E5
:103A100098AB8FA73FC069A97AA98BA99CA920E080
:103A20003FEF4FE757E40E94C50318164CF56DA908
:103A30007EA98FA998AD20E030E040E251E40E94D9
:103A40001F02DC01CB01BC01CD010E944900DC0159
:103A5000CB0198AB8FA70FC088EC90E09EA78DA7F5
:103A60008DA59EA50197F1F79EA78DA78FA598A973
:103A7000019798AB8FA78FA598A9009769F714C0F5
:103A800069A97AA98BA99CA90E944900DC01CB01F4
:103A900098AB8FA78FA598A99CA78BA78BA59CA552
:103AA0000197F1F79CA78BA787E790E00E944B0B4B
:103AB00089E30E94E91E80E090E0A8E4B3E48FA3CC
:103AC00098A7A9A7BAA76FA178A589A59AA520E06C
:103AD00030E04AEF54E40E941F02DC01CB018BA3CB
:103AE0009CA3ADA3BEA36BA17CA18DA19EA120E050
:103AF00030E040E85FE30E94250488232CF481E055
:103B000090E09AA389A33FC06BA17CA18DA19EA147
:103B100020E03FEF4FE757E40E94C50318164CF52D
:103B20006FA178A589A59AA520E030E040E251E494
:103B30000E941F02DC01CB01BC01CD010E944900A3
:103B4000DC01CB019AA389A30FC088EC90E098A375
:103B50008F8F8F8D98A10197F1F798A38F8F89A1EF
:103B60009AA101979AA389A389A19AA1009769F7BD
:103B700014C06BA17CA18DA19EA10E944900DC0113
:103B8000CB019AA389A389A19AA19E8F8D8F8D8D38
:103B90009E8D0197F1F79E8F8D8F9091C50080E0EB
:103BA000692F0E944A0E8091C6000E940F0A8091E0
:103BB000C5008F5F8093C50000C180E090E0A8EC55
:103BC000B2E4898F9A8FAB8FBC8F698D7A8D8B8D84
:103BD0009C8D20E030E04AEF54E40E941F02DC019B
:103BE000CB018D8B9E8BAF8BB88F6D897E898F8932
:103BF000988D20E030E040E85FE30E9425048823B0
:103C00002CF481E090E09C8B8B8B3FC06D897E898A
:103C10008F89988D20E03FEF4FE757E40E94C5035E
:103C200018164CF5698D7A8D8B8D9C8D20E030E0D7
:103C300040E251E40E941F02DC01CB01BC01CD0136
:103C40000E944900DC01CB019C8B8B8B0FC088EC60
:103C500090E09A8B898B89899A890197F1F79A8BE1
:103C6000898B8B899C8901979C8B8B8B8B899C89F9
:103C7000009769F714C06D897E898F89988D0E949D
:103C80004900DC01CB019C8B8B8B8B899C89988BA9
:103C90008F878F8598890197F1F7988B8F8789E7B0
:103CA00090E00E944B0B80E30E94E91E80E090E0D0
:103CB000A8E4B3E48B879C87AD87BE876B857C8542
:103CC0008D859E8520E030E04AEF54E40E941F027B
:103CD000DC01CB018F839887A987BA876F817885AC
:103CE00089859A8520E030E040E85FE30E94250462
:103CF00088232CF481E090E09E838D833FC06F8108
:103D0000788589859A8520E03FEF4FE757E40E9448
:103D1000C50318164CF56B857C858D859E8520E046
:103D200030E040E251E40E941F02DC01CB01BC0103
:103D3000CD010E944900DC01CB019E838D830FC021
:103D400088EC90E09C838B838B819C810197F1F7B9
:103D50009C838B838D819E8101979E838D838D8132
:103D60009E81009769F714C06F81788589859A854F
:103D70000E944900DC01CB019E838D838D819E8151
:103D80009A83898389819A810197F1F79A8389833C
:103D90009091C50080E0692F0E944A0E8091C60074
:103DA0000E940F0A8091C5008F5F8093C50005C0F7
:103DB00081E00E94AD0A0E94011FC65EDE4F0FB671
:103DC000F894DEBF0FBECDBFCF91DF911F910F9151
:103DD0000895DF93CF930F92CDB7DEB7898380919B
:103DE000CD00882F90E0FC01E153FF4F8981808353
:103DF0008091CD008F5F8093CD000F90CF91DF91A8
:103E000008950F931F93DF93CF93CDB7DEB7C655B9
:103E1000D0400FB6F894DEBF0FBECDBF9091CF005B
:103E20008091C100981709F033C29091D000809121
:103E3000C200981709F02CC29091D1008091C30064
:103E4000981709F025C29091D2008091C40098176C
:103E500009F01EC281E00E94AD0A80E060E00E948D
:103E60004A0E8BE790E00E944B0B84E064E040E058
:103E70000E94D70684E066E040E00E94D706FE017B
:103E8000EF5AFF4F80E090E0A8E4B2E48083918392
:103E9000A283B3838E01035B1F4FFE01EF5AFF4FD6
:103EA000608171818281938120E030E04AEF54E4A7
:103EB0000E941F02DC01CB01F80180839183A28361
:103EC000B383FE01E35BFF4F608171818281938147
:103ED00020E030E040E85FE30E942504882344F4BA
:103EE000FE01E55BFF4F81E090E09183808364C039
:103EF000FE01E35BFF4F608171818281938120E04D
:103F00003FEF4FE757E40E94C50318160CF043C07B
:103F1000FE01EF5AFF4F608171818281938120E021
:103F200030E040E251E40E941F02DC01CB018E012F
:103F3000055B1F4FBC01CD010E944900DC01CB0194
:103F4000F801918380831FC0FE01E75BFF4F88EC7F
:103F500090E091838083FE01E75BFF4F8081918138
:103F60000197F1F7FE01E75BFF4F91838083DE014C
:103F7000A55BBF4FFE01E55BFF4F808191810197FB
:103F800011969C938E93FE01E55BFF4F808191819A
:103F90000097D1F627C08E01055B1F4FFE01E35B42
:103FA000FF4F60817181828193810E944900DC0111
:103FB000CB01F80191838083DE01A95BBF4FFE0135
:103FC000E55BFF4F808191818D939C93FE01E95BBE
:103FD000FF4F808191810197F1F7FE01E95BFF4F6F
:103FE0009183808384E066E041E00E94D70681E00F
:103FF00066E040E00E94D70681E067E041E00E9471
:10400000D706FE01ED5BFF4F80E090E0AAEFB4E43D
:1040100080839183A283B3838E01015C1F4FFE01D5
:10402000ED5BFF4F608171818281938120E030E000
:104030004AEF54E40E941F02DC01CB01F8018083A7
:104040009183A283B383FE01FF9660817181828197
:10405000938120E030E040E85FE30E94250488235C
:104060002CF481E090E09EAF8DAF46C0FE01FF963C
:10407000608171818281938120E03FEF4FE757E4B7
:104080000E94C503181664F5FE01ED5BFF4F6081C9
:1040900071818281938120E030E040E251E40E940E
:1040A0001F02DC01CB01BC01CD010E944900DC01F3
:1040B000CB019EAF8DAF0FC088EC90E09CAF8BAF73
:1040C0008BAD9CAD0197F1F79CAF8BAF8DAD9EADE5
:1040D00001979EAF8DAF8DAD9EAD009769F716C06D
:1040E000FE01FF9660817181828193810E94490067
:1040F000DC01CB019EAF8DAF8DAD9EAD9AAF89AF88
:1041000089AD9AAD0197F1F79AAF89AF81E066E08A
:1041100041E00E94D70681E067E041E00E94D706B7
:1041200084E062E00E944F068823D1F381E067E0DB
:1041300040E00E94D70681E066E041E00E94D70699
:1041400080E090E0AAEFB4E48DAB9EABAFABB8AF2C
:104150006DA97EA98FA998AD20E030E04AEF54E424
:104160000E941F02DC01CB0189AB9AABABABBCABAD
:1041700069A97AA98BA99CA920E030E040E85FE317
:104180000E94250488232CF481E090E098AB8FA74F
:104190003FC069A97AA98BA99CA920E03FEF4FE70E
:1041A00057E40E94C50318164CF56DA97EA98FA986
:1041B00098AD20E030E040E251E40E941F02DC01B3
:1041C000CB01BC01CD010E944900DC01CB0198ABC1
:1041D0008FA70FC088EC90E09EA78DA78DA59EA508
:1041E0000197F1F79EA78DA78FA598A9019798AB86
:1041F0008FA78FA598A9009769F714C069A97AA914
:104200008BA99CA90E944900DC01CB0198AB8FA728
:104210008FA598A99CA78BA78BA59CA50197F1F7C3
:104220009CA78BA781E067E041E00E94D70681E070
:1042300066E041E00E94D70684E064E041E00E942D
:10424000D7061092CD0086E08093C500FE01EA5AA1
:10425000FF4F108214C0FE01EA5AFF4F8081882F61
:1042600090E0FC01E153FF4F80E38083DE01AA5A16
:10427000BF4FFE01EA5AFF4F80818F5F8C93FE0192
:10428000EA5AFF4F8081843030F30E9452109FC160
:1042900081E00E94AD0A80E060E00E944A0E8BE857
:1042A00090E00E944B0B0E94952480E090E0AAEFE2
:1042B000B3E48FA398A7A9A7BAA76FA178A589A5EA
:1042C0009AA520E030E04AEF54E40E941F02DC018E
:1042D000CB018BA39CA3ADA3BEA36BA17CA18DA19D
:1042E0009EA120E030E040E85FE30E94250488239F
:1042F0002CF481E090E09AA389A33FC06BA17CA13C
:104300008DA19EA120E03FEF4FE757E40E94C50337
:1043100018164CF56FA178A589A59AA520E030E084
:1043200040E251E40E941F02DC01CB01BC01CD013F
:104330000E944900DC01CB019AA389A30FC088EC3D
:1043400090E098A38F8F8F8D98A10197F1F798A394
:104350008F8F89A19AA101979AA389A389A19AA174
:10436000009769F714C06BA17CA18DA19EA10E944A
:104370004900DC01CB019AA389A389A19AA19E8F50
:104380008D8F8D8D9E8D0197F1F79E8F8D8F0E9461
:1043900052101092CD0086E08093C5008091CB0032
:1043A0008F5F8093CB008091CB00833008F00DC1EC
:1043B00084E065E040E00E94D706FE01EB5AFF4F23
:1043C0001082F7C084E066E040E00E94D70680E0FB
:1043D00090E0A8ECB2E4898F9A8FAB8FBC8F698D87
:1043E0007A8D8B8D9C8D20E030E04AEF54E40E9462
:1043F0001F02DC01CB018D8B9E8BAF8BB88F6D893B
:104400007E898F89988D20E030E040E85FE30E944C
:10441000250488232CF481E090E09C8B8B8B3FC09B
:104420006D897E898F89988D20E03FEF4FE757E4B3
:104430000E94C50318164CF5698D7A8D8B8D9C8D65
:1044400020E030E040E251E40E941F02DC01CB0199
:10445000BC01CD010E944900DC01CB019C8B8B8B00
:104460000FC088EC90E09A8B898B89899A89019793
:10447000F1F79A8B898B8B899C8901979C8B8B8B0D
:104480008B899C89009769F714C06D897E898F8913
:10449000988D0E944900DC01CB019C8B8B8B8B8912
:1044A0009C89988B8F878F8598890197F1F7988BD6
:1044B0008F8784E066E041E00E94D70680E090E0CC
:1044C000A8ECB2E48B879C87AD87BE876B857C8523
:1044D0008D859E8520E030E04AEF54E40E941F0263
:1044E000DC01CB018F839887A987BA876F81788594
:1044F00089859A8520E030E040E85FE30E9425044A
:1045000088232CF481E090E09E838D833FC06F81EF
:10451000788589859A8520E03FEF4FE757E40E9430
:10452000C50318164CF56B857C858D859E8520E02E
:1045300030E040E251E40E941F02DC01CB01BC01EB
:10454000CD010E944900DC01CB019E838D830FC009
:1045500088EC90E09C838B838B819C810197F1F7A1
:104560009C838B838D819E8101979E838D838D811A
:104570009E81009769F714C06F81788589859A8537
:104580000E944900DC01CB019E838D838D819E8139
:104590009A83898389819A810197F1F79A83898324
:1045A000DE01AB5ABF4FFE01EB5AFF4F80818F5F98
:1045B0008C93FE01EB5AFF4F8081823008F402CFCA
:1045C00084E065E041E00E94D7060E94F322CA5AC7
:1045D000DF4F0FB6F894DEBF0FBECDBFCF91DF9196
:1045E0001F910F910895DF93CF93CDB7DEB7AB97AF
:1045F0000FB6F894DEBF0FBECDBF8091CB008330E5
:1046000009F08AC181E00E94AD0A80E060E00E946A
:104610004A0E89E990E00E944B0B80E090E0AAEFFF
:10462000B3E48FA398A7A9A7BAA76FA178A589A576
:104630009AA520E030E04AEF54E40E941F02DC011A
:10464000CB018BA39CA3ADA3BEA36BA17CA18DA129
:104650009EA120E030E040E85FE30E94250488232B
:104660002CF481E090E09AA389A33FC06BA17CA1C8
:104670008DA19EA120E03FEF4FE757E40E94C503C4
:1046800018164CF56FA178A589A59AA520E030E011
:1046900040E251E40E941F02DC01CB01BC01CD01CC
:1046A0000E944900DC01CB019AA389A30FC088ECCA
:1046B00090E098A38F8F8F8D98A10197F1F798A321
:1046C0008F8F89A19AA101979AA389A389A19AA101
:1046D000009769F714C06BA17CA18DA19EA10E94D7
:1046E0004900DC01CB019AA389A389A19AA19E8FDD
:1046F0008D8F8D8D9E8D0197F1F79E8F8D8F81E02F
:104700000E94AD0A82EA90E00E944B0B81E060E0DB
:104710000E944A0E8BEA90E00E944B0B1BA6F5C04C
:1047200084E066E040E00E94D70684E065E00E94F5
:10473000910980E090E0A8ECB3E4898F9A8FAB8F69
:10474000BC8F698D7A8D8B8D9C8D20E030E04AEF97
:1047500054E40E941F02DC01CB018D8B9E8BAF8B3A
:10476000B88F6D897E898F89988D20E030E040E890
:104770005FE30E94250488232CF481E090E09C8B69
:104780008B8B3FC06D897E898F89988D20E03FEFAC
:104790004FE757E40E94C50318164CF5698D7A8DD2
:1047A0008B8D9C8D20E030E040E251E40E941F029E
:1047B000DC01CB01BC01CD010E944900DC01CB0131
:1047C0009C8B8B8B0FC088EC90E09A8B898B8989AE
:1047D0009A890197F1F79A8B898B8B899C8901972C
:1047E0009C8B8B8B8B899C89009769F714C06D8992
:1047F0007E898F89988D0E944900DC01CB019C8BBA
:104800008B8B8B899C89988B8F878F859889019753
:10481000F1F7988B8F8784E066E041E00E94D7062D
:1048200080E090E0A8ECB2E48B879C87AD87BE87E0
:104830006B857C858D859E8520E030E04AEF54E4D1
:104840000E941F02DC01CB018F839887A987BA875A
:104850006F81788589859A8520E030E040E85FE3C4
:104860000E94250488232CF481E090E09E838D83B0
:104870003FC06F81788589859A8520E03FEF4FE7BB
:1048800057E40E94C50318164CF56B857C858D8511
:104890009E8520E030E040E251E40E941F02DC01EE
:1048A000CB01BC01CD010E944900DC01CB019E83FC
:1048B0008D830FC088EC90E09C838B838B819C81DF
:1048C0000197F1F79C838B838D819E8101979E8355
:1048D0008D838D819E81009769F714C06F817885E3
:1048E00089859A850E944900DC01CB019E838D83D6
:1048F0008D819E819A83898389819A810197F1F7BD
:104900009A8389838BA58F5F8BA78BA58A3008F448
:1049100007CF81E00E94AD0AAB960FB6F894DEBFD8
:104920000FBECDBFCF91DF910895DF93CF93CDB769
:10493000DEB78091CC00882331F49091C70083E0EA
:10494000692F0E9449098091CC00813031F4909107
:10495000C80083E0692F0E9449098091CC00823011
:1049600031F49091C90083E0692F0E944909809138
:10497000CC008F5F8093CC00CF91DF9108952F9270
:104980003F924F925F926F927F928F929F92AF92DF
:10499000BF92CF92DF92EF92FF920F931F93CF932C
:1049A000DF93CDB7DEB7CA1BDB0B0FB6F894DEBFC3
:1049B0000FBECDBF09942A88398848885F846E84E9
:1049C0007D848C849B84AA84B984C884DF80EE8033
:1049D000FD800C811B81AA81B981CE0FD11D0FB63C
:1049E000F894DEBF0FBECDBFED010895F894FFCF60
:1049F00070617373203D00310032003300340035A4
:104A00000036003700380039003000616363657399
:104A10007320617070726F766564006163636573A3
:104A2000732064656E696564005741524E494E4774
:104A30002100544845524520495300414E20494EDB
:104A4000545255444552212100000000000000004E
:0A4A50000035323630062A79243092
:00000001FF
