:100000000C942A000C9447000C9447000C94470071
:100010000C9447000C9447000C9447000C94470044
:100020000C9447000C9447000C9447000C94470034
:100030000C9447000C9447000C9447000C94470024
:100040000C9447000C9447000C9447000C94470014
:100050000C94470011241FBECFE5D4E0DEBFCDBF16
:1000600010E0A0E6B0E0E4ECFFE102C005900D92E4
:10007000A038B107D9F710E0A0E8B0E001C01D92A8
:10008000A138B107E1F70E949C0F0C94E00F0C948B
:100090000000EF92FF920F931F937B018C0120E0F1
:1000A00030E040E05FE40E94F50388238CF0C80153
:1000B000B70120E030E040E05FE40E94C1010E940F
:1000C00055049B01AC01205030404040504806C0D0
:1000D000C801B7010E9455049B01AC01B901CA01D6
:1000E0001F910F91FF90EF900895A0E0B0E0EBE733
:1000F000F0E00C94A90FDC012B01FA019C919230E5
:1001000008F439C1EB018881823008F433C194309E
:1001100069F4843009F02FC111969C91119789815F
:10012000981709F428C1A0E6B0E025C1843009F48D
:1001300021C18230A9F4923009F01DC19A01AD01AC
:1001400088E0EA010990AE01E90109929E0181501F
:10015000C1F7E201898111969C918923818308C1AD
:10016000923009F407C112962D903C901397EB0141
:100170008A819B811496AD90BD90CD90DC901797AD
:10018000EC80FD800E811F819101281B390BB90184
:1001900037FF04C066277727621B730B6032710537
:1001A0000CF061C0121613066CF537014801062EDB
:1001B00004C096948794779467940A94D2F721E0C8
:1001C00030E040E050E004C0220F331F441F551FB1
:1001D0006A95D2F721503040404050402E213F21B7
:1001E00040235123211531054105510521F021E01E
:1001F00030E040E050E079018A01E628F72808293C
:1002000019293CC0232BD1F1260E371E350146019A
:10021000062E04C096948794779467940A94D2F734
:1002200021E030E040E050E004C0220F331F441FC3
:10023000551F6A95D2F721503040404050402A2146
:100240003B214C215D21211531054105510521F04E
:1002500021E030E040E050E059016A01A628B728CB
:10026000C828D9280BC0821593052CF01C01AA249C
:10027000BB24650103C0EE24FF24870111969C91E5
:10028000D20111968C91981709F445C0992339F041
:10029000A80197012A193B094C095D0906C0A6016E
:1002A00095012E193F09400B510B57FD08C01182D3
:1002B0003382228224833583468357831DC081E0A5
:1002C00081833382228288279927DC01821B930B4A
:1002D000A40BB50B84839583A683B7830DC0220F2F
:1002E000331F441F551F24833583468357838281E0
:1002F000938101979383828324813581468157813D
:10030000DA01C9010197A109B1098F5F9F4FAF4F72
:10031000BF4328F30BC0918333822282EA0CFB1C7B
:100320000C1D1D1DE482F5820683178383E0808304
:10033000248135814681578157FF1AC0C901AA27F8
:1003400097FDA095BA2F81709070A070B0705695EF
:10035000479537952795822B932BA42BB52B848318
:100360009583A683B7838281938101969383828349
:10037000DF0101C0D201CD01CDB7DEB7E2E10C94BF
:10038000C50FA0E2B0E0E7ECF1E00C94B50F698393
:100390007A838B839C832D833E834F835887E9E048
:1003A000EE2EF12CEC0EFD1ECE010196B7010E943F
:1003B0007E058E010F5E1F4FCE010596B8010E948B
:1003C0007E058A8991E089278A8BC701B801AE0131
:1003D000475E5F4F0E9475000E94A904A096E6E068
:1003E0000C94D10FA0E2B0E0E8EFF1E00C94B50F6F
:1003F00069837A838B839C832D833E834F835887C5
:10040000F9E0EF2EF12CEC0EFD1ECE010196B701A6
:100410000E947E058E010F5E1F4FCE010596B8012A
:100420000E947E05C701B801AE01475E5F4F0E9482
:1004300075000E94A904A096E6E00C94D10FA0E2FA
:10044000B0E0E5E2F2E00C94A90F69837A838B8334
:100450009C832D833E834F835887CE010196BE0136
:10046000675F7F4F0E947E05CE010596BE016F5EDD
:100470007F4F0E947E059985923088F0898982306D
:10048000C8F0943019F4823051F404C0843029F457
:10049000923081F480E690E0C6C0923049F420E0CA
:1004A0009A858A89981321E02A87CE010996BBC0D4
:1004B000823049F420E09A858A89981321E02A8BBA
:1004C000CE014196B0C02D843E844F8458886D88FB
:1004D0007E888F88988CEE24FF248701AA24BB2471
:1004E000650140E050E060E070E0E0E0F0E0C10174
:1004F00081709070892BE9F0E60CF71C081D191D1E
:100500009A01AB012A0D3B1D4C1D5D1D80E090E062
:10051000A0E0B0E0E614F7040805190520F481E036
:1005200090E0A0E0B0E0BA01A901480F591F6A1F8E
:100530007B1FAA0CBB1CCC1CDD1C97FE08C081E0F5
:1005400090E0A0E0B0E0A82AB92ACA2ADB2A3196B6
:10055000E032F10549F0660C771C881C991C569412
:10056000479437942794C3CFFA85EA892B893C892D
:100570008B859C85280F391F2E5F3F4F17C0CA01FE
:1005800081709070892B61F016950795F794E79428
:1005900080E090E0A0E0B0E8E82AF92A0A2B1B2BC3
:1005A00076956795579547952F5F3F4F77FDE7CF36
:1005B0000CC0440F551F661F771F17FD4160EE0CDE
:1005C000FF1C001F111F21503040403090E05907A0
:1005D00090E0690790E4790760F32B8F3C8FDB0193
:1005E000CA018F779070A070B07080349105A1051A
:1005F000B10561F447FD0AC0E114F10401051105DC
:1006000029F0405C5F4F6F4F7F4F40781A8EFE1786
:1006100011F081E08A8F4D8F5E8F6F8F78A383E01A
:10062000898FCE0149960E94A904A096E2E10C941C
:10063000C50FA8E1B0E0EFE1F3E00C94B10F6983DE
:100640007A838B839C832D833E834F835887B9E0C5
:10065000EB2EF12CEC0EFD1ECE010196B7010E948F
:100660007E058E010F5E1F4FCE010596B8010E94D8
:100670007E052985223008F47EC03989323010F495
:10068000B8017CC08A859A8989278A87243011F02D
:10069000223031F4231709F06EC060E670E06EC0BE
:1006A000343039F41D861E861F86188A1C861B86E8
:1006B00004C0323021F484E08987B7015FC02B8504
:1006C0003C858B899C89281B390B3C872B87ED84C3
:1006D000FE840F851889AD88BE88CF88D88CEA142F
:1006E000FB040C051D0540F4EE0CFF1C001F111F40
:1006F000215030403C872B8720E030E040E050E044
:1007000080E090E0A0E0B0E460E070E0EA14FB0478
:100710000C051D0540F0282B392B4A2B5B2BEA18C2
:10072000FB080C091D09B695A79597958795EE0CC2
:10073000FF1C001F111F6F5F7F4F6F31710531F775
:10074000DA01C9018F779070A070B0708034910584
:10075000A105B10561F427FD0AC0E114F10401050A
:10076000110529F0205C3F4F4F4F5F4F20782D87B8
:100770003E874F87588BBE01675F7F4FCB010E943A
:10078000A9046896EAE00C94CD0FA8E1B0E0EBEC88
:10079000F3E00C94B50F69837A838B839C832D835C
:1007A0003E834F83588789E0E82EF12CEC0EFD1E26
:1007B000CE010196B7010E947E058E010F5E1F4F8C
:1007C000CE010596B8010E947E058985823040F0F1
:1007D0008989823028F0C701B8010E94F60501C05E
:1007E0008FEF6896E6E00C94D10FA8E1B0E0EBEF54
:1007F000F3E00C94B50F69837A838B839C832D83FC
:100800003E834F83588789E0E82EF12CEC0EFD1EC5
:10081000CE010196B7010E947E058E010F5E1F4F2B
:10082000CE010596B8010E947E058985823040F090
:100830008989823028F0C701B8010E94F60501C0FD
:100840008FEF6896E6E00C94D10FA8E1B0E0EBE200
:10085000F4E00C94B50F69837A838B839C832D839A
:100860003E834F83588789E0E82EF12CEC0EFD1E65
:10087000CE010196B7010E947E058E010F5E1F4FCB
:10088000CE010596B8010E947E058985823040F030
:100890008989823028F0C701B8010E94F60501C09D
:1008A00081E06896E6E00C94D10FACE0B0E0EBE5B7
:1008B000F4E00C94B90F69837A838B839C83CE0117
:1008C0000196BE016B5F7F4F0E947E058D81823055
:1008D00061F1823050F1843021F48E81882351F10E
:1008E0002EC02F81388537FD20C06E812F31310514
:1008F0001CF06623F9F023C08EE190E0821B930B7D
:1009000029853A854B855C8504C056954795379572
:1009100027958A95D2F76623B1F05095409530958A
:1009200021953F4F4F4F5F4F0EC020E030E040E039
:1009300050E009C02FEF3FEF4FEF5FE704C020E02A
:1009400030E040E050E8B901CA012C96E2E00C9496
:10095000D50FDF92EF92FF920F931F93FC01E4807B
:10096000F58006811781D1808081823048F480E053
:1009700090E0A0E1B0E0E82AF92A0A2B1B2BA5C0E1
:10098000843009F49FC0823021F4EE24FF248701D3
:1009900005C0E114F1040105110519F4E0E0F0E0EF
:1009A00096C0628173819FEF623879070CF05BC05B
:1009B00022E83FEF261B370B2A3131052CF020E0CF
:1009C00030E040E050E02AC0B801A701022E04C088
:1009D00076956795579547950A94D2F781E090E010
:1009E000A0E0B0E004C0880F991FAA1FBB1F2A9582
:1009F000D2F70197A109B1098E219F21A023B1232C
:100A00000097A105B10521F081E090E0A0E0B0E001
:100A10009A01AB01282B392B4A2B5B2BDA01C90138
:100A20008F779070A070B07080349105A105B105EA
:100A300039F427FF09C0205C3F4F4F4F5F4F04C080
:100A4000215C3F4F4F4F5F4FE0E0F0E02030A0E0EF
:100A50003A07A0E04A07A0E45A0710F0E1E0F0E00E
:100A600079018A0127C06038710564F5FB01E158FE
:100A7000FF4FD801C7018F779070A070B07080349D
:100A80009105A105B10539F4E7FE0DC080E490E0C1
:100A9000A0E0B0E004C08FE390E0A0E0B0E0E80E9A
:100AA000F91E0A1F1B1F17FF05C016950795F7941F
:100AB000E794319687E016950795F794E7948A9521
:100AC000D1F705C0EE24FF248701EFEFF0E06E2F91
:100AD000679566276795902F9F77D794DD24D794E5
:100AE0008E2F8695492F462B582F5D29B701CA01B5
:100AF0001F910F91FF90EF90DF900895FC01DB01B3
:100B0000408151812281622F6F7770E0221F22275E
:100B1000221F9381892F880F822B282F30E0991F65
:100B20009927991F11969C93119721153105A9F5C5
:100B3000411551056105710511F482E037C082E865
:100B40009FEF13969C938E9312979A01AB0167E0E7
:100B5000220F331F441F551F6A95D1F783E08C93F2
:100B60000DC0220F331F441F551F12968D919C916B
:100B70001397019713969C938E931297203080E0E1
:100B8000380780E0480780E4580758F314962D93FF
:100B90003D934D935C93179708952F3F310579F45A
:100BA000411551056105710519F484E08C93089590
:100BB00064FF03C081E08C9312C01C9210C02F57B9
:100BC000304013963C932E93129783E08C9387E0EA
:100BD000440F551F661F771F8A95D1F770641496CE
:100BE0004D935D936D937C93179708951F93DC014C
:100BF000FB019C91923008F447C08081823008F458
:100C000043C0943051F411961C91843099F5818140
:100C1000682F70E0611B71093FC0843021F0923071
:100C200031F48230B9F18181882389F12DC0119688
:100C30001C9111978230F1F081811817D9F4129626
:100C40002D913C911397828193818217930794F0A1
:100C500028173907BCF014968D919D910D90BC9189
:100C6000A02D2481358146815781281739074A07ED
:100C70005B0718F4112341F00AC082179307A407F9
:100C8000B50740F4112319F061E070E005C06FEF83
:100C90007FEF02C060E070E0CB011F910895DF9309
:100CA000CF93CDB7DEB782E060E041E00E94A708B5
:100CB00082E061E041E00E94A70882E062E041E05A
:100CC0000E94A70882E063E041E00E94A70882E05A
:100CD00064E040E00E94A70882E065E040E00E94F6
:100CE000A70882E066E040E00E94A70882E067E093
:100CF00040E00E94A70882E060E040E00E94920786
:100D000082E061E040E00E94920782E062E040E021
:100D10000E94920782E063E040E00E94920782E036
:100D200064E040E00E94920782E065E040E00E94BB
:100D3000920782E066E040E00E94920782E067E06E
:100D400040E00E949207CF91DF910895DF93CF9307
:100D500000D00F92CDB7DEB71A8250C08A81882F9B
:100D600090E0FC01E859FF4F908182E0692F41E05B
:100D70000E949207198230C08981882F90E0FC017F
:100D8000E459FF4F908182E0692F0E940A0788236F
:100D900001F58981882F90E0FC01E459FF4F908193
:100DA00082E0692F0E940A07882399F38A81482FDD
:100DB00050E08981282F30E0CA01880F991F880FE1
:100DC000991F820F931FFC01E059FF4F80818B8395
:100DD0001AC089818F5F89838981843068F28A8112
:100DE000882F90E0FC01E859FF4F908182E0692F45
:100DF00040E00E9492078A818F5F8A838A818430D3
:100E000008F4ACCF1B828B810F900F900F90CF9185
:100E1000DF910895DF93CF9300D000D0CDB7DEB738
:100E200089836A838981882309F473C08981853025
:100E300008F06FC08A81883008F06BC08981282F44
:100E400030E03C832B834B815C814230510549F17A
:100E50008B819C818330910534F42B813C8121303E
:100E6000310561F056C04B815C814330510561F121
:100E70008B819C8184309105D1F14BC0E9E3F0E096
:100E80008081282F30E08A81882F90E0A90102C05C
:100E9000559547958A95E2F7CA0181708093800045
:100EA00038C0E6E3F0E08081282F30E08A81882F87
:100EB00090E0A90102C0559547958A95E2F7CA01CD
:100EC00081708093800025C0E3E3F0E08081282FCB
:100ED00030E08A81882F90E0A90102C0559547959E
:100EE0008A95E2F7CA0181708093800012C0E0E326
:100EF000F0E08081282F30E08A81882F90E0A901DE
:100F000002C0559547958A95E2F7CA018170809392
:100F10008000809180000F900F900F900F90CF91E4
:100F2000DF910895DF93CF93CDB7DEB727970FB644
:100F3000F894DEBF0FBECDBF89836A834B8389815E
:100F4000882309F4FBC08981853008F0F7C08A81C5
:100F5000883008F0F3C08B81882321F08B818130A9
:100F600009F0ECC08B81882309F070C08981282F9B
:100F700030E03F832E838E819F818230910551F135
:100F80002E813F812330310534F48E819F81813061
:100F9000910561F0D3C02E813F812330310571F17D
:100FA0008E819F8184309105E9F1C8C0ABE3B0E048
:100FB000EBE3F0E08081482F8A81282F30E081E048
:100FC00090E0022E02C0880F991F0A94E2F7842B4A
:100FD0008C93B4C0A8E3B0E0E8E3F0E08081482F50
:100FE0008A81282F30E081E090E0022E02C0880F35
:100FF000991F0A94E2F7842B8C93A0C0A5E3B0E07C
:10100000E5E3F0E08081482F8A81282F30E081E0FD
:1010100090E0022E02C0880F991F0A94E2F7842BF9
:101020008C938CC0A2E3B0E0E2E3F0E08081482F33
:101030008A81282F30E081E090E0022E02C0880FE4
:10104000991F0A94E2F7842B8C9378C08B818130AE
:1010500009F074C08981282F30E03D832C838C8176
:101060009D818230910561F12C813D8123303105D4
:1010700034F48C819D818130910569F05FC02C81B1
:101080003D812330310589F18C819D81843091052A
:1010900009F440C053C0ABE3B0E0EBE3F0E0808183
:1010A000482F8A81282F30E081E090E0022E02C094
:1010B000880F991F0A94E2F7809584238C933EC091
:1010C000A8E3B0E0E8E3F0E08081482F8A81282F90
:1010D00030E081E090E0022E02C0880F991F0A9450
:1010E000E2F7809584238C9329C0A5E3B0E0E5E383
:1010F000F0E08081482F8A81282F30E081E090E065
:10110000022E02C0880F991F0A94E2F7809584236B
:101110008C9314C0A2E3B0E0E2E3F0E08081482FBA
:101120008A81282F30E081E090E0022E02C0880FF3
:10113000991F0A94E2F7809584238C9327960FB623
:10114000F894DEBF0FBECDBFCF91DF910895DF933E
:10115000CF93CDB7DEB727970FB6F894DEBF0FBE9B
:10116000CDBF89836A834B838981882309F4FBC0BF
:101170008981853008F0F7C08A81883008F0F3C093
:101180008B81882321F08B81813009F0ECC08B8129
:10119000882309F075C08981282F30E03F832E8392
:1011A0008E819F818230910561F12E813F812330B4
:1011B000310534F48E819F818130910569F0D3C06F
:1011C0002E813F812330310589F18E819F818430CA
:1011D000910509F440C0C7C0AAE3B0E0EAE3F0E03B
:1011E0008081482F8A81282F30E081E090E0022E14
:1011F00002C0880F991F0A94E2F7809584238C938C
:10120000B2C0A7E3B0E0E7E3F0E08081482F8A8135
:10121000282F30E081E090E0022E02C0880F991F55
:101220000A94E2F7809584238C939DC0A4E3B0E0F8
:10123000E4E3F0E08081482F8A81282F30E081E0CC
:1012400090E0022E02C0880F991F0A94E2F7809561
:1012500084238C9388C0A1E3B0E0E1E3F0E08081D7
:10126000482F8A81282F30E081E090E0022E02C0D2
:10127000880F991F0A94E2F7809584238C9373C09A
:101280008B81813009F06FC08981282F30E03D8348
:101290002C838C819D818230910551F12C813D817F
:1012A0002330310534F48C819D818130910561F0CA
:1012B0005AC02C813D812330310571F18C819D8193
:1012C00084309105E9F14FC0AAE3B0E0EAE3F0E031
:1012D0008081482F8A81282F30E081E090E0022E23
:1012E00002C0880F991F0A94E2F7842B8C933BC0AD
:1012F000A7E3B0E0E7E3F0E08081482F8A81282F60
:1013000030E081E090E0022E02C0880F991F0A941D
:10131000E2F7842B8C9327C0A4E3B0E0E4E3F0E091
:101320008081482F8A81282F30E081E090E0022ED2
:1013300002C0880F991F0A94E2F7842B8C9313C084
:10134000A1E3B0E0E1E3F0E08081482F8A81282F1B
:1013500030E081E090E0022E02C0880F991F0A94CD
:10136000E2F7842B8C9327960FB6F894DEBF0FBE5E
:10137000CDBFCF91DF910895DF93CF9300D000D000
:10138000CDB7DEB789836A8389818823B1F18981EA
:10139000853098F58981282F30E03C832B838B8121
:1013A0009C8182309105D9F02B813C81233031051D
:1013B00034F48B819C818130910561F01EC02B81BA
:1013C0003C812330310581F08B819C8184309105F3
:1013D00081F013C0EAE3F0E08A8180830EC0E7E386
:1013E000F0E08A81808309C0E4E3F0E08A818083B1
:1013F00004C0E1E3F0E08A8180830F900F900F90AA
:101400000F90CF91DF910895DF93CF9300D000D05C
:10141000CDB7DEB789836A8389818823B1F1898159
:10142000853098F58981282F30E03C832B838B8190
:101430009C8182309105D9F02B813C81233031058C
:1014400034F48B819C818130910561F01EC02B8129
:101450003C812330310581F08B819C818430910562
:1014600081F013C0EBE3F0E08A8180830EC0E8E3F3
:10147000F0E08A81808309C0E5E3F0E08A8180831F
:1014800004C0E2E3F0E08A8180830F900F900F9018
:101490000F90CF91DF910895DF93CF9300D000D0CC
:1014A000CDB7DEB789836A838981282F30E03C83FA
:1014B0002B838B819C818230910551F12B813C8162
:1014C0002330310534F48B819C818130910561F0AA
:1014D0005AC02B813C812330310571F18B819C8175
:1014E00084309105E9F14FC0ABE3B0E0EBE3F0E00D
:1014F0008081482F8A81282F30E081E090E0022E01
:1015000002C0880F991F0A94E2F784278C933BC08E
:10151000A8E3B0E0E8E3F0E08081482F8A81282F3B
:1015200030E081E090E0022E02C0880F991F0A94FB
:10153000E2F784278C9327C0A5E3B0E0E5E3F0E071
:101540008081482F8A81282F30E081E090E0022EB0
:1015500002C0880F991F0A94E2F784278C9313C066
:10156000A2E3B0E0E2E3F0E08081482F8A81282FF7
:1015700030E081E090E0022E02C0880F991F0A94AB
:10158000E2F784278C930F900F900F900F90CF91DC
:10159000DF910895DF93CF93CDB7DEB72F970FB6C6
:1015A000F894DEBF0FBECDBF8F8781E060E040E0E2
:1015B0000E94920781E061E041E00E94920782E090
:1015C0006F850E94040A81E062E040E00E94920779
:1015D00088E599E3A4ECBFE38B879C87AD87BE8742
:1015E0006B857C858D859E8520E030E04AE753E45D
:1015F0000E941F02DC01CB018F839887A987BA87DD
:101600006F81788589859A8520E030E040E85FE346
:101610000E94250488232CF481E090E09E838D8332
:101620003FC06F81788589859A8520E03FEF4FE73D
:1016300057E40E94C50318164CF56B857C858D8593
:101640009E8520E030E040E251E40E941F02DC0170
:10165000CB01BC01CD010E944900DC01CB019E837E
:101660008D830FC089E190E09C838B838B819C816B
:101670000197F1F79C838B838D819E8101979E83D7
:101680008D838D819E81009769F714C06F81788565
:1016900089859A850E944900DC01CB019E838D8358
:1016A0008D819E819A83898389819A810197F1F73F
:1016B0009A83898381E062E041E00E9492072F963D
:1016C0000FB6F894DEBF0FBECDBFCF91DF91089566
:1016D000DF93CF93CDB7DEB72F970FB6F894DEBF69
:1016E0000FBECDBF8F8781E060E041E00E9492078E
:1016F00081E061E041E00E94920782E06F850E94F4
:10170000040A81E062E040E00E94920788E599E3E4
:10171000A4ECBFE38B879C87AD87BE876B857C85F8
:101720008D859E8520E030E04AE753E40E941F0249
:10173000DC01CB018F839887A987BA876F81788571
:1017400089859A8520E030E040E85FE30E94250427
:1017500088232CF481E090E09E838D833FC06F81CD
:10176000788589859A8520E03FEF4FE757E40E940E
:10177000C50318164CF56B857C858D859E8520E00C
:1017800030E040E251E40E941F02DC01CB01BC01C9
:10179000CD010E944900DC01CB019E838D830FC0E7
:1017A00089E190E09C838B838B819C810197F1F789
:1017B0009C838B838D819E8101979E838D838D81F8
:1017C0009E81009769F714C06F81788589859A8515
:1017D0000E944900DC01CB019E838D838D819E8117
:1017E0009A83898389819A810197F1F79A83898302
:1017F00081E062E041E00E9492072F960FB6F894D4
:10180000DEBF0FBECDBFCF91DF910895DF93CF93A1
:1018100000D00F92CDB7DEB79B838A8319820EC0AA
:101820008981282F30E08A819B81FC01E20FF31F20
:1018300080810E94CA0A89818F5F89838981282FCC
:1018400030E08A819B81FC01E20FF31F80818823B5
:1018500039F70F900F900F90CF91DF9108950F936C
:101860001F93DF93CF93CDB7DEB7CC54D0400FB6E4
:10187000F894DEBF0FBECDBF81E060E041E00E9482
:10188000A70881E061E041E00E94A70881E062E0F2
:1018900041E00E94A70882E061E00E94BC09FE01CD
:1018A000E75BFF4F80E090E0A0EFB1E4808391839D
:1018B000A283B3838E010B5B1F4FFE01E75BFF4FDB
:1018C000608171818281938120E030E04AE753E4B6
:1018D0000E941F02DC01CB01F80180839183A28367
:1018E000B383FE01EB5BFF4F608171818281938145
:1018F00020E030E040E85FE30E942504882344F4C0
:10190000FE01ED5BFF4F81E090E09183808364C036
:10191000FE01EB5BFF4F608171818281938120E04A
:101920003FEF4FE757E40E94C50318160CF043C081
:10193000FE01E75BFF4F608171818281938120E02E
:1019400030E040E251E40E941F02DC01CB018E0135
:101950000D5B1F4FBC01CD010E944900DC01CB0192
:10196000F801918380831FC0FE01EF5BFF4F89E187
:1019700090E091838083FE01EF5BFF4F8081918136
:101980000197F1F7FE01EF5BFF4F91838083DE014A
:10199000AD5BBF4FFE01ED5BFF4F808191810197F1
:1019A00011969C938E93FE01ED5BFF4F8081918198
:1019B0000097D1F624C08E010D5B1F4FFE01EB5B3B
:1019C000FF4F60817181828193810E944900DC0117
:1019D000CB01F80191838083FE01ED5BFF4F808195
:1019E0009181FE01FF9691838083FE01FF968081A5
:1019F00091810197F1F7FE01FF969183808388E33F
:101A00000E94680B80E090E0ACE1B2E48BAF9CAF49
:101A1000ADAFBEAF6BAD7CAD8DAD9EAD2BEA3AEAFE
:101A20004AEA5EE30E941F02DC01CB018FAB98AF54
:101A3000A9AFBAAF6FA978AD89AD9AAD20E030E01B
:101A400040E85FE30E94250488231CF481E08EAB0C
:101A500091C06FA978AD89AD9AAD20E030E04FE735
:101A600053E40E94C50318160CF07BC06BAD7CAD2F
:101A70008DAD9EAD20E030E04AE754E40E941903AA
:101A8000DC01CB018AAB9BABACABBDAB6AA97BA93C
:101A90008CA99DA920E030E04AE753E40E941F0290
:101AA000DC01CB018EA79FA7A8ABB9AB6EA57FA524
:101AB00088A999A920E030E040E85FE30E9425046E
:101AC00088232CF481E090E09DA78CA73FC06EA5F1
:101AD0007FA588A999A920E03FEF4FE757E40E942E
:101AE000C50318164CF56AA97BA98CA99DA920E00D
:101AF00030E040E251E40E941F02DC01CB01BC0156
:101B0000CD010E944900DC01CB019DA78CA70FC02D
:101B100089E190E09BA78AA78AA59BA50197F1F789
:101B20009BA78AA78CA59DA501979DA78CA78CA58F
:101B30009DA5009769F724C06EA57FA588A999A9DE
:101B40000E944900DC01CB019DA78CA78CA59DA517
:101B500099A788A788A599A50197F1F799A788A7BC
:101B60000FC06FA978AD89AD9AAD0E944900DC0124
:101B7000CB018EAB8EA98FA38FA18A95F1F78FA38E
:101B80008FE00E94680B80E090E0ACE1B2E48BA3B0
:101B90009CA3ADA3BEA36BA17CA18DA19EA12BEAAA
:101BA0003AEA4AEA5EE30E941F02DC01CB018F8F12
:101BB00098A3A9A3BAA36F8D78A189A19AA120E0C7
:101BC00030E040E85FE30E94250488231CF481E0B4
:101BD0008E8F91C06F8D78A189A19AA120E030E00D
:101BE0004FE753E40E94C50318160CF07BC06BA1AD
:101BF0007CA18DA19EA120E030E04AE754E40E9440
:101C00001903DC01CB018A8F9B8FAC8FBD8F6A8D4E
:101C10007B8D8C8D9D8D20E030E04AE753E40E945F
:101C20001F02DC01CB018E8B9F8BA88FB98F6E8931
:101C30007F89888D998D20E030E040E85FE30E9445
:101C4000250488232CF481E090E09D8B8C8B3FC091
:101C50006E897F89888D998D20E03FEF4FE757E4AB
:101C60000E94C50318164CF56A8D7B8D8C8D9D8D59
:101C700020E030E040E251E40E941F02DC01CB0191
:101C8000BC01CD010E944900DC01CB019D8B8C8BF6
:101C90000FC089E190E09B8B8A8B8A899B89019791
:101CA000F1F79B8B8A8B8C899D8901979D8B8C8BFF
:101CB0008C899D89009769F724C06E897F89888DFA
:101CC000998D0E944900DC01CB019D8B8C8B8C8906
:101CD0009D89998B888B888999890197F1F7998BD0
:101CE000888B0FC06F8D78A189A19AA10E944900AD
:101CF000DC01CB018E8F8E8D8F878F858A95F1F7D2
:101D00008F8781E00E94680B8AE097EDA3ECBFE328
:101D10008B879C87AD87BE876B857C858D859E85EF
:101D200020E030E04AE753E40E941F02DC01CB01CF
:101D30008F839887A987BA876F81788589859A85E7
:101D400020E030E040E85FE30E94250488232CF483
:101D500081E090E09E838D833FC06F817885898587
:101D60009A8520E03FEF4FE757E40E94C50318161D
:101D70004CF56B857C858D859E8520E030E040E2CA
:101D800051E40E941F02DC01CB01BC01CD010E9485
:101D90004900DC01CB019E838D830FC089E190E077
:101DA0009C838B838B819C810197F1F79C838B8330
:101DB0008D819E8101979E838D838D819E81009769
:101DC00069F714C06F81788589859A850E944900DA
:101DD000DC01CB019E838D838D819E819A838983D3
:101DE00089819A810197F1F79A83898386E00E941D
:101DF000680BC45BDF4F0FB6F894DEBF0FBECDBFDC
:101E0000CF91DF911F910F910895DF93CF9300D071
:101E100000D0CDB7DEB789836A838A818031C0F470
:101E20008981282F30E03C832B838B819C81009714
:101E300031F02B813C812130310531F009C08A819C
:101E400080580E94680B04C08A8180580E94680BE9
:101E50000F900F900F900F90CF91DF910895DF9327
:101E6000CF93CDB7DEB7E0E4F0E080818068808377
:101E7000E0E4F0E080818F7B8083E0E4F0E080812B
:101E8000877F8083E0E4F0E0808182608083E0E40B
:101E9000F0E0808184608083E0E4F0E080818F7EE8
:101EA0008083E0E4F0E080818F7D8083EAE2F0E0EF
:101EB00080818B7F8083EAE2F0E08081886080838C
:101EC000EAE2F0E0808180618083E9E2F0E083E390
:101ED0008083E0E4F0E01082CF91DF910895DF93FA
:101EE000CF930F92CDB7DEB78983EBE2F0E080812C
:101EF00080728823D1F3ECE2F0E0898180830F9037
:101F0000CF91DF910895DF93CF930F92CDB7DEB7D6
:101F1000EBE2F0E0808180788823D1F3ECE2F0E01E
:101F200080818983EBE2F0E080818F7780838981F3
:101F30000F90CF91DF910895DF93CF93CDB7DEB7A8
:101F40000E942F0F0E944F060E94A6060E946F0F4C
:101F5000FBCF2F923F924F925F926F927F928F9220
:101F60009F92AF92BF92CF92DF92EF92FF920F9328
:101F70001F93CF93DF93CDB7DEB7CA1BDB0B0FB632
:101F8000F894DEBF0FBECDBF09942A8839884888EF
:101F90005F846E847D848C849B84AA84B984C88485
:101FA000DF80EE80FD800C811B81AA81B981CE0F7C
:101FB000D11D0FB6F894DEBF0FBECDBFED01089561
:041FC000F894FFCFC3
:101FC40000000000000000000001020304050607F1
:101FD4003738392F3435362A3132332D23303D2BDF
:00000001FF
